{"contracts/AuxidienOracle.sol":{"AuxidienOracle":{"abi":[{"inputs":[{"internalType":"address","name":"admin","type":"address"},{"internalType":"uint256","name":"_minUpdateInterval","type":"uint256"}],"stateMutability":"nonpayable","type":"constructor"},{"inputs":[],"name":"AccessControlBadConfirmation","type":"error"},{"inputs":[{"internalType":"address","name":"account","type":"address"},{"internalType":"bytes32","name":"neededRole","type":"bytes32"}],"name":"AccessControlUnauthorizedAccount","type":"error"},{"anonymous":false,"inputs":[{"indexed":false,"internalType":"uint256","name":"oldRate","type":"uint256"},{"indexed":false,"internalType":"uint256","name":"newRate","type":"uint256"}],"name":"MaxPriceChangeRateChanged","type":"event"},{"anonymous":false,"inputs":[{"indexed":false,"internalType":"uint256","name":"goldPrice","type":"uint256"},{"indexed":false,"internalType":"uint256","name":"silverPrice","type":"uint256"},{"indexed":false,"internalType":"uint256","name":"platinumPrice","type":"uint256"},{"indexed":false,"internalType":"uint256","name":"palladiumPrice","type":"uint256"},{"indexed":false,"internalType":"uint256","name":"timestamp","type":"uint256"}],"name":"MetalPricesRecorded","type":"event"},{"anonymous":false,"inputs":[{"indexed":false,"internalType":"uint256","name":"oldInterval","type":"uint256"},{"indexed":false,"internalType":"uint256","name":"newInterval","type":"uint256"}],"name":"MinUpdateIntervalChanged","type":"event"},{"anonymous":false,"inputs":[{"indexed":false,"internalType":"uint256","name":"pricePerOzE6","type":"uint256"},{"indexed":false,"internalType":"uint256","name":"timestamp","type":"uint256"},{"indexed":true,"internalType":"address","name":"updater","type":"address"}],"name":"PriceUpdated","type":"event"},{"anonymous":false,"inputs":[{"indexed":true,"internalType":"bytes32","name":"role","type":"bytes32"},{"indexed":true,"internalType":"bytes32","name":"previousAdminRole","type":"bytes32"},{"indexed":true,"internalType":"bytes32","name":"newAdminRole","type":"bytes32"}],"name":"RoleAdminChanged","type":"event"},{"anonymous":false,"inputs":[{"indexed":true,"internalType":"bytes32","name":"role","type":"bytes32"},{"indexed":true,"internalType":"address","name":"account","type":"address"},{"indexed":true,"internalType":"address","name":"sender","type":"address"}],"name":"RoleGranted","type":"event"},{"anonymous":false,"inputs":[{"indexed":true,"internalType":"bytes32","name":"role","type":"bytes32"},{"indexed":true,"internalType":"address","name":"account","type":"address"},{"indexed":true,"internalType":"address","name":"sender","type":"address"}],"name":"RoleRevoked","type":"event"},{"inputs":[],"name":"ADMIN_ROLE","outputs":[{"internalType":"bytes32","name":"","type":"bytes32"}],"stateMutability":"view","type":"function"},{"inputs":[],"name":"DEFAULT_ADMIN_ROLE","outputs":[{"internalType":"bytes32","name":"","type":"bytes32"}],"stateMutability":"view","type":"function"},{"inputs":[],"name":"ORACLE_ROLE","outputs":[{"internalType":"bytes32","name":"","type":"bytes32"}],"stateMutability":"view","type":"function"},{"inputs":[],"name":"getMetalPrices","outputs":[{"internalType":"uint256","name":"gold","type":"uint256"},{"internalType":"uint256","name":"silver","type":"uint256"},{"internalType":"uint256","name":"platinum","type":"uint256"},{"internalType":"uint256","name":"palladium","type":"uint256"}],"stateMutability":"view","type":"function"},{"inputs":[],"name":"getPriceData","outputs":[{"internalType":"uint256","name":"price","type":"uint256"},{"internalType":"uint256","name":"updatedAt","type":"uint256"},{"internalType":"uint8","name":"decimals","type":"uint8"}],"stateMutability":"view","type":"function"},{"inputs":[],"name":"getPricePerOzE6","outputs":[{"internalType":"uint256","name":"","type":"uint256"}],"stateMutability":"view","type":"function"},{"inputs":[{"internalType":"bytes32","name":"role","type":"bytes32"}],"name":"getRoleAdmin","outputs":[{"internalType":"bytes32","name":"","type":"bytes32"}],"stateMutability":"view","type":"function"},{"inputs":[{"internalType":"address","name":"oracle","type":"address"}],"name":"grantOracleRole","outputs":[],"stateMutability":"nonpayable","type":"function"},{"inputs":[{"internalType":"bytes32","name":"role","type":"bytes32"},{"internalType":"address","name":"account","type":"address"}],"name":"grantRole","outputs":[],"stateMutability":"nonpayable","type":"function"},{"inputs":[{"internalType":"bytes32","name":"role","type":"bytes32"},{"internalType":"address","name":"account","type":"address"}],"name":"hasRole","outputs":[{"internalType":"bool","name":"","type":"bool"}],"stateMutability":"view","type":"function"},{"inputs":[{"internalType":"uint256","name":"maxAge","type":"uint256"}],"name":"isStale","outputs":[{"internalType":"bool","name":"","type":"bool"}],"stateMutability":"view","type":"function"},{"inputs":[],"name":"lastMetalPrices","outputs":[{"internalType":"uint256","name":"goldPrice","type":"uint256"},{"internalType":"uint256","name":"silverPrice","type":"uint256"},{"internalType":"uint256","name":"platinumPrice","type":"uint256"},{"internalType":"uint256","name":"palladiumPrice","type":"uint256"}],"stateMutability":"view","type":"function"},{"inputs":[],"name":"lastUpdateAt","outputs":[{"internalType":"uint256","name":"","type":"uint256"}],"stateMutability":"view","type":"function"},{"inputs":[],"name":"maxPriceChangeRate","outputs":[{"internalType":"uint256","name":"","type":"uint256"}],"stateMutability":"view","type":"function"},{"inputs":[],"name":"minUpdateInterval","outputs":[{"internalType":"uint256","name":"","type":"uint256"}],"stateMutability":"view","type":"function"},{"inputs":[{"internalType":"bytes32","name":"role","type":"bytes32"},{"internalType":"address","name":"callerConfirmation","type":"address"}],"name":"renounceRole","outputs":[],"stateMutability":"nonpayable","type":"function"},{"inputs":[{"internalType":"address","name":"oracle","type":"address"}],"name":"revokeOracleRole","outputs":[],"stateMutability":"nonpayable","type":"function"},{"inputs":[{"internalType":"bytes32","name":"role","type":"bytes32"},{"internalType":"address","name":"account","type":"address"}],"name":"revokeRole","outputs":[],"stateMutability":"nonpayable","type":"function"},{"inputs":[{"internalType":"uint256","name":"rate","type":"uint256"}],"name":"setMaxPriceChangeRate","outputs":[],"stateMutability":"nonpayable","type":"function"},{"inputs":[{"internalType":"uint256","name":"interval","type":"uint256"}],"name":"setMinUpdateInterval","outputs":[],"stateMutability":"nonpayable","type":"function"},{"inputs":[{"internalType":"uint256","name":"newPricePerOzE6","type":"uint256"}],"name":"setPricePerOzE6","outputs":[],"stateMutability":"nonpayable","type":"function"},{"inputs":[{"internalType":"uint256","name":"newPricePerOzE6","type":"uint256"},{"internalType":"uint256","name":"goldPrice","type":"uint256"},{"internalType":"uint256","name":"silverPrice","type":"uint256"},{"internalType":"uint256","name":"platinumPrice","type":"uint256"},{"internalType":"uint256","name":"palladiumPrice","type":"uint256"}],"name":"setPriceWithMetals","outputs":[],"stateMutability":"nonpayable","type":"function"},{"inputs":[{"internalType":"bytes4","name":"interfaceId","type":"bytes4"}],"name":"supportsInterface","outputs":[{"internalType":"bool","name":"","type":"bool"}],"stateMutability":"view","type":"function"}],"evm":{"bytecode":{"linkReferences":{},"object":"6080346100cc57601f610f3c38819003918201601f19168301916001600160401b038311848410176100d15780849260409485528339810103126100cc5780516001600160a01b038116918282036100cc57602001519115610087578061006861006e926100e7565b50610165565b506003556103e8600455604051610d1690816102068239f35b60405162461bcd60e51b815260206004820152601d60248201527f4f7261636c653a2061646d696e206973207a65726f20616464726573730000006044820152606490fd5b600080fd5b634e487b7160e01b600052604160045260246000fd5b6001600160a01b031660008181527fad3228b676f7d3cd4284a5443f17f1962b36e491b30a40b2405849e597ba5fb5602052604081205490919060ff1661016157818052816020526040822081835260205260408220600160ff198254161790553391600080516020610f1c8339815191528180a4600190565b5090565b6001600160a01b031660008181527f7d7ffb7a348e1c6a02869081a26547b49160dd3df72d1d75a570eb9b698292ec60205260408120549091907fa49807205ce4d355092ef5a8a18f56e8913cf4a201fbe287825b095693c217759060ff1661020057808352826020526040832082845260205260408320600160ff19825416179055600080516020610f1c833981519152339380a4600190565b50509056fe60806040908082526004918236101561001757600080fd5b600091823560e01c90816301ffc9a7146107e45750806302238498146107c657806307e2cea51461079e5780630964ff2614610780578063199733be146107625780631cca8ad314610744578063248a9ca31461071a5780632f2ff15d146106f057806336568abe146106ab5780634e14a58314610656578063618af389146104d157806362ea9232146101cb57806368c0840b146103df57806375b238fc146103a557806391d148541461035f578063a217fddf14610345578063a4a2816814610319578063a5cbe415146102ef578063a624a1df146102c6578063d547741f1461028b578063df9c49a31461020c578063e86d978a146101cb5763eadcbebe1461012257600080fd5b346101c75760203660031901126101c75782359261013e610869565b831515806101bb575b1561018257837f0a97794e333034a80110b809d73369db190d2145084de96bb4fa3cd483afb64393948254925582519182526020820152a180f35b6020606492519162461bcd60e51b835282015260146024820152734f7261636c653a20696e76616c6964207261746560601b6044820152fd5b50612710841115610147565b5080fd5b509034610209578060031936011261020957506005546006546007546008549351928352602083019190915260408201526060810191909152608090f35b80fd5b50823461028757602036600319011261028757610227610853565b91610230610869565b6001600160a01b0383161561024d578361024984610953565b5080f35b906020606492519162461bcd60e51b835282015260146024820152734f7261636c653a207a65726f206164647265737360601b6044820152fd5b8280fd5b5082903461028757806003193601126102875761024991356102c160016102b0610838565b93838752866020528620015461092d565b610b05565b50903461020957602036600319011261020957506102e660209235610ca1565b90519015158152f35b82346102095760203660031901126102095761024961030c610853565b610314610869565b610a6c565b50346101c757816003193601126101c75760609060066001549160025481519384526020840152820152f35b50346101c757816003193601126101c75751908152602090f35b5082346102875781600319360112610287578160209360ff92610380610838565b903582528186528282206001600160a01b039091168252855220549151911615158152f35b50346101c757816003193601126101c757602090517fa49807205ce4d355092ef5a8a18f56e8913cf4a201fbe287825b095693c217758152f35b50829034610287576020366003190112610287577f378b09391f49d01e482ba75312341912ad0652cb8aa8799b6b33b624bd65d9f2908235926104206108e3565b61042b841515610b7a565b600254801515806104c6575b6104a8575b506001549081610462575b5050826001554260025580519283524260208401523392a280f35b61271061048961049193808811600014610498576104808189610c35565b935b5490610c42565b041015610c55565b8480610447565b6104a28882610c35565b93610482565b6104b86104c09160035490610bc6565b421015610be9565b8561043c565b506003541515610437565b50346101c75760a03660031901126101c75760243590608435906064359060443586356104fc6108e3565b610507811515610b7a565b6002548015158061064b575b610635575b50600154806105f3575b50806001554260025582516080810181811067ffffffffffffffff8211176105e057918660607fdfec04f968b7ecbc26f9b6696c36d383c152a658cfa51d36c3772888d4d4d10499979593879560a09a9852888152846020820152868682015201528560055581600655836007558460085582519081524260208201527f378b09391f49d01e482ba75312341912ad0652cb8aa8799b6b33b624bd65d9f2833392a2815194855260208501528301526060820152426080820152a180f35b634e487b7160e01b895260418a52602489fd5b610619908083111561061f5761271061048961060f8386610c35565b925b8c5490610c42565b38610522565b61271061048961062f8584610c35565b92610611565b6104b86106459160035490610bc6565b38610518565b506003541515610513565b50829034610287576020366003190112610287577fdb8776f9f2f65cbf90f03ed95074bb01450f2e86e418b581e80df5dea18b6cb99135610695610869565b600354908060035582519182526020820152a180f35b50346101c757806003193601126101c7576106c4610838565b90336001600160a01b038316036106e15750610249919235610b05565b5163334bd91960e11b81528390fd5b50829034610287578060031936011261028757610249913561071560016102b0610838565b6109f3565b50823461028757602036600319011261028757816020936001923581528085522001549051908152f35b50823461028757826003193601126102875760209250549051908152f35b50346101c757816003193601126101c7576020906002549051908152f35b50346101c757816003193601126101c7576020906003549051908152f35b50346101c757816003193601126101c75760209051600080516020610cc18339815191528152f35b50346101c757816003193601126101c7576020906001549051908152f35b83908534610287576020366003190112610287573563ffffffff60e01b81168091036102875760209250637965db0b60e01b8114908115610827575b5015158152f35b6301ffc9a760e01b14905083610820565b602435906001600160a01b038216820361084e57565b600080fd5b600435906001600160a01b038216820361084e57565b3360009081527f7d7ffb7a348e1c6a02869081a26547b49160dd3df72d1d75a570eb9b698292ec60205260409020547fa49807205ce4d355092ef5a8a18f56e8913cf4a201fbe287825b095693c217759060ff16156108c55750565b6044906040519063e2517d3f60e01b82523360048301526024820152fd5b3360009081527fa629f6981c2f6895a67dc766e8e03ff72d04a413d0d8773a3ca56e9e474032c16020526040902054600080516020610cc18339815191529060ff16156108c55750565b80600052600060205260406000203360005260205260ff60406000205416156108c55750565b6001600160a01b031660008181527fa629f6981c2f6895a67dc766e8e03ff72d04a413d0d8773a3ca56e9e474032c16020526040812054909190600080516020610cc18339815191529060ff166109ee57808352826020526040832082845260205260408320600160ff198254161790557f2f8788117e7eff1d82e926ec794901d17c78024a50270940304540a733656f0d339380a4600190565b505090565b9060009180835282602052604083209160018060a01b03169182845260205260ff604084205416156000146109ee57808352826020526040832082845260205260408320600160ff198254161790557f2f8788117e7eff1d82e926ec794901d17c78024a50270940304540a733656f0d339380a4600190565b6001600160a01b031660008181527fa629f6981c2f6895a67dc766e8e03ff72d04a413d0d8773a3ca56e9e474032c16020526040812054909190600080516020610cc18339815191529060ff16156109ee5780835282602052604083208284526020526040832060ff1981541690557ff6391f5c32d9c69d2a47ea670b442974b53935d1edc7fd64eb21e047a839171b339380a4600190565b9060009180835282602052604083209160018060a01b03169182845260205260ff6040842054166000146109ee5780835282602052604083208284526020526040832060ff1981541690557ff6391f5c32d9c69d2a47ea670b442974b53935d1edc7fd64eb21e047a839171b339380a4600190565b15610b8157565b60405162461bcd60e51b815260206004820152601960248201527f4f7261636c653a207072696365206d757374206265203e2030000000000000006044820152606490fd5b91908201809211610bd357565b634e487b7160e01b600052601160045260246000fd5b15610bf057565b60405162461bcd60e51b815260206004820152601760248201527f4f7261636c653a2075706461746520746f6f20736f6f6e0000000000000000006044820152606490fd5b91908203918211610bd357565b81810292918115918404141715610bd357565b15610c5c57565b60405162461bcd60e51b815260206004820152601e60248201527f4f7261636c653a207072696365206368616e676520746f6f206c6172676500006044820152606490fd5b600254908115610cb957610cb491610bc6565b421190565b505060019056fe68e79a7bf1e0bc45d0a330c573bc367f9cf464fd326078812f301165fbda4ef1a2646970667358221220d5a97dfc42d59eb24c5810337e4cb64d6e23a44e0c9a5da89739d54dbc5bac7464736f6c634300081400332f8788117e7eff1d82e926ec794901d17c78024a50270940304540a733656f0d","opcodes":"PUSH1 0x80 CALLVALUE PUSH2 0xCC JUMPI PUSH1 0x1F PUSH2 0xF3C CODESIZE DUP2 SWAP1 SUB SWAP2 DUP3 ADD PUSH1 0x1F NOT AND DUP4 ADD SWAP2 PUSH1 0x1 PUSH1 0x1 PUSH1 0x40 SHL SUB DUP4 GT DUP5 DUP5 LT OR PUSH2 0xD1 JUMPI DUP1 DUP5 SWAP3 PUSH1 0x40 SWAP5 DUP6 MSTORE DUP4 CODECOPY DUP2 ADD SUB SLT PUSH2 0xCC JUMPI DUP1 MLOAD PUSH1 0x1 PUSH1 0x1 PUSH1 0xA0 SHL SUB DUP2 AND SWAP2 DUP3 DUP3 SUB PUSH2 0xCC JUMPI PUSH1 0x20 ADD MLOAD SWAP2 ISZERO PUSH2 0x87 JUMPI DUP1 PUSH2 0x68 PUSH2 0x6E SWAP3 PUSH2 0xE7 JUMP JUMPDEST POP PUSH2 0x165 JUMP JUMPDEST POP PUSH1 0x3 SSTORE PUSH2 0x3E8 PUSH1 0x4 SSTORE PUSH1 0x40 MLOAD PUSH2 0xD16 SWAP1 DUP2 PUSH2 0x206 DUP3 CODECOPY RETURN JUMPDEST PUSH1 0x40 MLOAD PUSH3 0x461BCD PUSH1 0xE5 SHL DUP2 MSTORE PUSH1 0x20 PUSH1 0x4 DUP3 ADD MSTORE PUSH1 0x1D PUSH1 0x24 DUP3 ADD MSTORE PUSH32 0x4F7261636C653A2061646D696E206973207A65726F2061646472657373000000 PUSH1 0x44 DUP3 ADD MSTORE PUSH1 0x64 SWAP1 REVERT JUMPDEST PUSH1 0x0 DUP1 REVERT JUMPDEST PUSH4 0x4E487B71 PUSH1 0xE0 SHL PUSH1 0x0 MSTORE PUSH1 0x41 PUSH1 0x4 MSTORE PUSH1 0x24 PUSH1 0x0 REVERT JUMPDEST PUSH1 0x1 PUSH1 0x1 PUSH1 0xA0 SHL SUB AND PUSH1 0x0 DUP2 DUP2 MSTORE PUSH32 0xAD3228B676F7D3CD4284A5443F17F1962B36E491B30A40B2405849E597BA5FB5 PUSH1 0x20 MSTORE PUSH1 0x40 DUP2 KECCAK256 SLOAD SWAP1 SWAP2 SWAP1 PUSH1 0xFF AND PUSH2 0x161 JUMPI DUP2 DUP1 MSTORE DUP2 PUSH1 0x20 MSTORE PUSH1 0x40 DUP3 KECCAK256 DUP2 DUP4 MSTORE PUSH1 0x20 MSTORE PUSH1 0x40 DUP3 KECCAK256 PUSH1 0x1 PUSH1 0xFF NOT DUP3 SLOAD AND OR SWAP1 SSTORE CALLER SWAP2 PUSH1 0x0 DUP1 MLOAD PUSH1 0x20 PUSH2 0xF1C DUP4 CODECOPY DUP2 MLOAD SWAP2 MSTORE DUP2 DUP1 LOG4 PUSH1 0x1 SWAP1 JUMP JUMPDEST POP SWAP1 JUMP JUMPDEST PUSH1 0x1 PUSH1 0x1 PUSH1 0xA0 SHL SUB AND PUSH1 0x0 DUP2 DUP2 MSTORE PUSH32 0x7D7FFB7A348E1C6A02869081A26547B49160DD3DF72D1D75A570EB9B698292EC PUSH1 0x20 MSTORE PUSH1 0x40 DUP2 KECCAK256 SLOAD SWAP1 SWAP2 SWAP1 PUSH32 0xA49807205CE4D355092EF5A8A18F56E8913CF4A201FBE287825B095693C21775 SWAP1 PUSH1 0xFF AND PUSH2 0x200 JUMPI DUP1 DUP4 MSTORE DUP3 PUSH1 0x20 MSTORE PUSH1 0x40 DUP4 KECCAK256 DUP3 DUP5 MSTORE PUSH1 0x20 MSTORE PUSH1 0x40 DUP4 KECCAK256 PUSH1 0x1 PUSH1 0xFF NOT DUP3 SLOAD AND OR SWAP1 SSTORE PUSH1 0x0 DUP1 MLOAD PUSH1 0x20 PUSH2 0xF1C DUP4 CODECOPY DUP2 MLOAD SWAP2 MSTORE CALLER SWAP4 DUP1 LOG4 PUSH1 0x1 SWAP1 JUMP JUMPDEST POP POP SWAP1 JUMP INVALID PUSH1 0x80 PUSH1 0x40 SWAP1 DUP1 DUP3 MSTORE PUSH1 0x4 SWAP2 DUP3 CALLDATASIZE LT ISZERO PUSH2 0x17 JUMPI PUSH1 0x0 DUP1 REVERT JUMPDEST PUSH1 0x0 SWAP2 DUP3 CALLDATALOAD PUSH1 0xE0 SHR SWAP1 DUP2 PUSH4 0x1FFC9A7 EQ PUSH2 0x7E4 JUMPI POP DUP1 PUSH4 0x2238498 EQ PUSH2 0x7C6 JUMPI DUP1 PUSH4 0x7E2CEA5 EQ PUSH2 0x79E JUMPI DUP1 PUSH4 0x964FF26 EQ PUSH2 0x780 JUMPI DUP1 PUSH4 0x199733BE EQ PUSH2 0x762 JUMPI DUP1 PUSH4 0x1CCA8AD3 EQ PUSH2 0x744 JUMPI DUP1 PUSH4 0x248A9CA3 EQ PUSH2 0x71A JUMPI DUP1 PUSH4 0x2F2FF15D EQ PUSH2 0x6F0 JUMPI DUP1 PUSH4 0x36568ABE EQ PUSH2 0x6AB JUMPI DUP1 PUSH4 0x4E14A583 EQ PUSH2 0x656 JUMPI DUP1 PUSH4 0x618AF389 EQ PUSH2 0x4D1 JUMPI DUP1 PUSH4 0x62EA9232 EQ PUSH2 0x1CB JUMPI DUP1 PUSH4 0x68C0840B EQ PUSH2 0x3DF JUMPI DUP1 PUSH4 0x75B238FC EQ PUSH2 0x3A5 JUMPI DUP1 PUSH4 0x91D14854 EQ PUSH2 0x35F JUMPI DUP1 PUSH4 0xA217FDDF EQ PUSH2 0x345 JUMPI DUP1 PUSH4 0xA4A28168 EQ PUSH2 0x319 JUMPI DUP1 PUSH4 0xA5CBE415 EQ PUSH2 0x2EF JUMPI DUP1 PUSH4 0xA624A1DF EQ PUSH2 0x2C6 JUMPI DUP1 PUSH4 0xD547741F EQ PUSH2 0x28B JUMPI DUP1 PUSH4 0xDF9C49A3 EQ PUSH2 0x20C JUMPI DUP1 PUSH4 0xE86D978A EQ PUSH2 0x1CB JUMPI PUSH4 0xEADCBEBE EQ PUSH2 0x122 JUMPI PUSH1 0x0 DUP1 REVERT JUMPDEST CALLVALUE PUSH2 0x1C7 JUMPI PUSH1 0x20 CALLDATASIZE PUSH1 0x3 NOT ADD SLT PUSH2 0x1C7 JUMPI DUP3 CALLDATALOAD SWAP3 PUSH2 0x13E PUSH2 0x869 JUMP JUMPDEST DUP4 ISZERO ISZERO DUP1 PUSH2 0x1BB JUMPI JUMPDEST ISZERO PUSH2 0x182 JUMPI DUP4 PUSH32 0xA97794E333034A80110B809D73369DB190D2145084DE96BB4FA3CD483AFB643 SWAP4 SWAP5 DUP3 SLOAD SWAP3 SSTORE DUP3 MLOAD SWAP2 DUP3 MSTORE PUSH1 0x20 DUP3 ADD MSTORE LOG1 DUP1 RETURN JUMPDEST PUSH1 0x20 PUSH1 0x64 SWAP3 MLOAD SWAP2 PUSH3 0x461BCD PUSH1 0xE5 SHL DUP4 MSTORE DUP3 ADD MSTORE PUSH1 0x14 PUSH1 0x24 DUP3 ADD MSTORE PUSH20 0x4F7261636C653A20696E76616C69642072617465 PUSH1 0x60 SHL PUSH1 0x44 DUP3 ADD MSTORE REVERT JUMPDEST POP PUSH2 0x2710 DUP5 GT ISZERO PUSH2 0x147 JUMP JUMPDEST POP DUP1 REVERT JUMPDEST POP SWAP1 CALLVALUE PUSH2 0x209 JUMPI DUP1 PUSH1 0x3 NOT CALLDATASIZE ADD SLT PUSH2 0x209 JUMPI POP PUSH1 0x5 SLOAD PUSH1 0x6 SLOAD PUSH1 0x7 SLOAD PUSH1 0x8 SLOAD SWAP4 MLOAD SWAP3 DUP4 MSTORE PUSH1 0x20 DUP4 ADD SWAP2 SWAP1 SWAP2 MSTORE PUSH1 0x40 DUP3 ADD MSTORE PUSH1 0x60 DUP2 ADD SWAP2 SWAP1 SWAP2 MSTORE PUSH1 0x80 SWAP1 RETURN JUMPDEST DUP1 REVERT JUMPDEST POP DUP3 CALLVALUE PUSH2 0x287 JUMPI PUSH1 0x20 CALLDATASIZE PUSH1 0x3 NOT ADD SLT PUSH2 0x287 JUMPI PUSH2 0x227 PUSH2 0x853 JUMP JUMPDEST SWAP2 PUSH2 0x230 PUSH2 0x869 JUMP JUMPDEST PUSH1 0x1 PUSH1 0x1 PUSH1 0xA0 SHL SUB DUP4 AND ISZERO PUSH2 0x24D JUMPI DUP4 PUSH2 0x249 DUP5 PUSH2 0x953 JUMP JUMPDEST POP DUP1 RETURN JUMPDEST SWAP1 PUSH1 0x20 PUSH1 0x64 SWAP3 MLOAD SWAP2 PUSH3 0x461BCD PUSH1 0xE5 SHL DUP4 MSTORE DUP3 ADD MSTORE PUSH1 0x14 PUSH1 0x24 DUP3 ADD MSTORE PUSH20 0x4F7261636C653A207A65726F2061646472657373 PUSH1 0x60 SHL PUSH1 0x44 DUP3 ADD MSTORE REVERT JUMPDEST DUP3 DUP1 REVERT JUMPDEST POP DUP3 SWAP1 CALLVALUE PUSH2 0x287 JUMPI DUP1 PUSH1 0x3 NOT CALLDATASIZE ADD SLT PUSH2 0x287 JUMPI PUSH2 0x249 SWAP2 CALLDATALOAD PUSH2 0x2C1 PUSH1 0x1 PUSH2 0x2B0 PUSH2 0x838 JUMP JUMPDEST SWAP4 DUP4 DUP8 MSTORE DUP7 PUSH1 0x20 MSTORE DUP7 KECCAK256 ADD SLOAD PUSH2 0x92D JUMP JUMPDEST PUSH2 0xB05 JUMP JUMPDEST POP SWAP1 CALLVALUE PUSH2 0x209 JUMPI PUSH1 0x20 CALLDATASIZE PUSH1 0x3 NOT ADD SLT PUSH2 0x209 JUMPI POP PUSH2 0x2E6 PUSH1 0x20 SWAP3 CALLDATALOAD PUSH2 0xCA1 JUMP JUMPDEST SWAP1 MLOAD SWAP1 ISZERO ISZERO DUP2 MSTORE RETURN JUMPDEST DUP3 CALLVALUE PUSH2 0x209 JUMPI PUSH1 0x20 CALLDATASIZE PUSH1 0x3 NOT ADD SLT PUSH2 0x209 JUMPI PUSH2 0x249 PUSH2 0x30C PUSH2 0x853 JUMP JUMPDEST PUSH2 0x314 PUSH2 0x869 JUMP JUMPDEST PUSH2 0xA6C JUMP JUMPDEST POP CALLVALUE PUSH2 0x1C7 JUMPI DUP2 PUSH1 0x3 NOT CALLDATASIZE ADD SLT PUSH2 0x1C7 JUMPI PUSH1 0x60 SWAP1 PUSH1 0x6 PUSH1 0x1 SLOAD SWAP2 PUSH1 0x2 SLOAD DUP2 MLOAD SWAP4 DUP5 MSTORE PUSH1 0x20 DUP5 ADD MSTORE DUP3 ADD MSTORE RETURN JUMPDEST POP CALLVALUE PUSH2 0x1C7 JUMPI DUP2 PUSH1 0x3 NOT CALLDATASIZE ADD SLT PUSH2 0x1C7 JUMPI MLOAD SWAP1 DUP2 MSTORE PUSH1 0x20 SWAP1 RETURN JUMPDEST POP DUP3 CALLVALUE PUSH2 0x287 JUMPI DUP2 PUSH1 0x3 NOT CALLDATASIZE ADD SLT PUSH2 0x287 JUMPI DUP2 PUSH1 0x20 SWAP4 PUSH1 0xFF SWAP3 PUSH2 0x380 PUSH2 0x838 JUMP JUMPDEST SWAP1 CALLDATALOAD DUP3 MSTORE DUP2 DUP7 MSTORE DUP3 DUP3 KECCAK256 PUSH1 0x1 PUSH1 0x1 PUSH1 0xA0 SHL SUB SWAP1 SWAP2 AND DUP3 MSTORE DUP6 MSTORE KECCAK256 SLOAD SWAP2 MLOAD SWAP2 AND ISZERO ISZERO DUP2 MSTORE RETURN JUMPDEST POP CALLVALUE PUSH2 0x1C7 JUMPI DUP2 PUSH1 0x3 NOT CALLDATASIZE ADD SLT PUSH2 0x1C7 JUMPI PUSH1 0x20 SWAP1 MLOAD PUSH32 0xA49807205CE4D355092EF5A8A18F56E8913CF4A201FBE287825B095693C21775 DUP2 MSTORE RETURN JUMPDEST POP DUP3 SWAP1 CALLVALUE PUSH2 0x287 JUMPI PUSH1 0x20 CALLDATASIZE PUSH1 0x3 NOT ADD SLT PUSH2 0x287 JUMPI PUSH32 0x378B09391F49D01E482BA75312341912AD0652CB8AA8799B6B33B624BD65D9F2 SWAP1 DUP3 CALLDATALOAD SWAP3 PUSH2 0x420 PUSH2 0x8E3 JUMP JUMPDEST PUSH2 0x42B DUP5 ISZERO ISZERO PUSH2 0xB7A JUMP JUMPDEST PUSH1 0x2 SLOAD DUP1 ISZERO ISZERO DUP1 PUSH2 0x4C6 JUMPI JUMPDEST PUSH2 0x4A8 JUMPI JUMPDEST POP PUSH1 0x1 SLOAD SWAP1 DUP2 PUSH2 0x462 JUMPI JUMPDEST POP POP DUP3 PUSH1 0x1 SSTORE TIMESTAMP PUSH1 0x2 SSTORE DUP1 MLOAD SWAP3 DUP4 MSTORE TIMESTAMP PUSH1 0x20 DUP5 ADD MSTORE CALLER SWAP3 LOG2 DUP1 RETURN JUMPDEST PUSH2 0x2710 PUSH2 0x489 PUSH2 0x491 SWAP4 DUP1 DUP9 GT PUSH1 0x0 EQ PUSH2 0x498 JUMPI PUSH2 0x480 DUP2 DUP10 PUSH2 0xC35 JUMP JUMPDEST SWAP4 JUMPDEST SLOAD SWAP1 PUSH2 0xC42 JUMP JUMPDEST DIV LT ISZERO PUSH2 0xC55 JUMP JUMPDEST DUP5 DUP1 PUSH2 0x447 JUMP JUMPDEST PUSH2 0x4A2 DUP9 DUP3 PUSH2 0xC35 JUMP JUMPDEST SWAP4 PUSH2 0x482 JUMP JUMPDEST PUSH2 0x4B8 PUSH2 0x4C0 SWAP2 PUSH1 0x3 SLOAD SWAP1 PUSH2 0xBC6 JUMP JUMPDEST TIMESTAMP LT ISZERO PUSH2 0xBE9 JUMP JUMPDEST DUP6 PUSH2 0x43C JUMP JUMPDEST POP PUSH1 0x3 SLOAD ISZERO ISZERO PUSH2 0x437 JUMP JUMPDEST POP CALLVALUE PUSH2 0x1C7 JUMPI PUSH1 0xA0 CALLDATASIZE PUSH1 0x3 NOT ADD SLT PUSH2 0x1C7 JUMPI PUSH1 0x24 CALLDATALOAD SWAP1 PUSH1 0x84 CALLDATALOAD SWAP1 PUSH1 0x64 CALLDATALOAD SWAP1 PUSH1 0x44 CALLDATALOAD DUP7 CALLDATALOAD PUSH2 0x4FC PUSH2 0x8E3 JUMP JUMPDEST PUSH2 0x507 DUP2 ISZERO ISZERO PUSH2 0xB7A JUMP JUMPDEST PUSH1 0x2 SLOAD DUP1 ISZERO ISZERO DUP1 PUSH2 0x64B JUMPI JUMPDEST PUSH2 0x635 JUMPI JUMPDEST POP PUSH1 0x1 SLOAD DUP1 PUSH2 0x5F3 JUMPI JUMPDEST POP DUP1 PUSH1 0x1 SSTORE TIMESTAMP PUSH1 0x2 SSTORE DUP3 MLOAD PUSH1 0x80 DUP2 ADD DUP2 DUP2 LT PUSH8 0xFFFFFFFFFFFFFFFF DUP3 GT OR PUSH2 0x5E0 JUMPI SWAP2 DUP7 PUSH1 0x60 PUSH32 0xDFEC04F968B7ECBC26F9B6696C36D383C152A658CFA51D36C3772888D4D4D104 SWAP10 SWAP8 SWAP6 SWAP4 DUP8 SWAP6 PUSH1 0xA0 SWAP11 SWAP9 MSTORE DUP9 DUP2 MSTORE DUP5 PUSH1 0x20 DUP3 ADD MSTORE DUP7 DUP7 DUP3 ADD MSTORE ADD MSTORE DUP6 PUSH1 0x5 SSTORE DUP2 PUSH1 0x6 SSTORE DUP4 PUSH1 0x7 SSTORE DUP5 PUSH1 0x8 SSTORE DUP3 MLOAD SWAP1 DUP2 MSTORE TIMESTAMP PUSH1 0x20 DUP3 ADD MSTORE PUSH32 0x378B09391F49D01E482BA75312341912AD0652CB8AA8799B6B33B624BD65D9F2 DUP4 CALLER SWAP3 LOG2 DUP2 MLOAD SWAP5 DUP6 MSTORE PUSH1 0x20 DUP6 ADD MSTORE DUP4 ADD MSTORE PUSH1 0x60 DUP3 ADD MSTORE TIMESTAMP PUSH1 0x80 DUP3 ADD MSTORE LOG1 DUP1 RETURN JUMPDEST PUSH4 0x4E487B71 PUSH1 0xE0 SHL DUP10 MSTORE PUSH1 0x41 DUP11 MSTORE PUSH1 0x24 DUP10 REVERT JUMPDEST PUSH2 0x619 SWAP1 DUP1 DUP4 GT ISZERO PUSH2 0x61F JUMPI PUSH2 0x2710 PUSH2 0x489 PUSH2 0x60F DUP4 DUP7 PUSH2 0xC35 JUMP JUMPDEST SWAP3 JUMPDEST DUP13 SLOAD SWAP1 PUSH2 0xC42 JUMP JUMPDEST CODESIZE PUSH2 0x522 JUMP JUMPDEST PUSH2 0x2710 PUSH2 0x489 PUSH2 0x62F DUP6 DUP5 PUSH2 0xC35 JUMP JUMPDEST SWAP3 PUSH2 0x611 JUMP JUMPDEST PUSH2 0x4B8 PUSH2 0x645 SWAP2 PUSH1 0x3 SLOAD SWAP1 PUSH2 0xBC6 JUMP JUMPDEST CODESIZE PUSH2 0x518 JUMP JUMPDEST POP PUSH1 0x3 SLOAD ISZERO ISZERO PUSH2 0x513 JUMP JUMPDEST POP DUP3 SWAP1 CALLVALUE PUSH2 0x287 JUMPI PUSH1 0x20 CALLDATASIZE PUSH1 0x3 NOT ADD SLT PUSH2 0x287 JUMPI PUSH32 0xDB8776F9F2F65CBF90F03ED95074BB01450F2E86E418B581E80DF5DEA18B6CB9 SWAP2 CALLDATALOAD PUSH2 0x695 PUSH2 0x869 JUMP JUMPDEST PUSH1 0x3 SLOAD SWAP1 DUP1 PUSH1 0x3 SSTORE DUP3 MLOAD SWAP2 DUP3 MSTORE PUSH1 0x20 DUP3 ADD MSTORE LOG1 DUP1 RETURN JUMPDEST POP CALLVALUE PUSH2 0x1C7 JUMPI DUP1 PUSH1 0x3 NOT CALLDATASIZE ADD SLT PUSH2 0x1C7 JUMPI PUSH2 0x6C4 PUSH2 0x838 JUMP JUMPDEST SWAP1 CALLER PUSH1 0x1 PUSH1 0x1 PUSH1 0xA0 SHL SUB DUP4 AND SUB PUSH2 0x6E1 JUMPI POP PUSH2 0x249 SWAP2 SWAP3 CALLDATALOAD PUSH2 0xB05 JUMP JUMPDEST MLOAD PUSH4 0x334BD919 PUSH1 0xE1 SHL DUP2 MSTORE DUP4 SWAP1 REVERT JUMPDEST POP DUP3 SWAP1 CALLVALUE PUSH2 0x287 JUMPI DUP1 PUSH1 0x3 NOT CALLDATASIZE ADD SLT PUSH2 0x287 JUMPI PUSH2 0x249 SWAP2 CALLDATALOAD PUSH2 0x715 PUSH1 0x1 PUSH2 0x2B0 PUSH2 0x838 JUMP JUMPDEST PUSH2 0x9F3 JUMP JUMPDEST POP DUP3 CALLVALUE PUSH2 0x287 JUMPI PUSH1 0x20 CALLDATASIZE PUSH1 0x3 NOT ADD SLT PUSH2 0x287 JUMPI DUP2 PUSH1 0x20 SWAP4 PUSH1 0x1 SWAP3 CALLDATALOAD DUP2 MSTORE DUP1 DUP6 MSTORE KECCAK256 ADD SLOAD SWAP1 MLOAD SWAP1 DUP2 MSTORE RETURN JUMPDEST POP DUP3 CALLVALUE PUSH2 0x287 JUMPI DUP3 PUSH1 0x3 NOT CALLDATASIZE ADD SLT PUSH2 0x287 JUMPI PUSH1 0x20 SWAP3 POP SLOAD SWAP1 MLOAD SWAP1 DUP2 MSTORE RETURN JUMPDEST POP CALLVALUE PUSH2 0x1C7 JUMPI DUP2 PUSH1 0x3 NOT CALLDATASIZE ADD SLT PUSH2 0x1C7 JUMPI PUSH1 0x20 SWAP1 PUSH1 0x2 SLOAD SWAP1 MLOAD SWAP1 DUP2 MSTORE RETURN JUMPDEST POP CALLVALUE PUSH2 0x1C7 JUMPI DUP2 PUSH1 0x3 NOT CALLDATASIZE ADD SLT PUSH2 0x1C7 JUMPI PUSH1 0x20 SWAP1 PUSH1 0x3 SLOAD SWAP1 MLOAD SWAP1 DUP2 MSTORE RETURN JUMPDEST POP CALLVALUE PUSH2 0x1C7 JUMPI DUP2 PUSH1 0x3 NOT CALLDATASIZE ADD SLT PUSH2 0x1C7 JUMPI PUSH1 0x20 SWAP1 MLOAD PUSH1 0x0 DUP1 MLOAD PUSH1 0x20 PUSH2 0xCC1 DUP4 CODECOPY DUP2 MLOAD SWAP2 MSTORE DUP2 MSTORE RETURN JUMPDEST POP CALLVALUE PUSH2 0x1C7 JUMPI DUP2 PUSH1 0x3 NOT CALLDATASIZE ADD SLT PUSH2 0x1C7 JUMPI PUSH1 0x20 SWAP1 PUSH1 0x1 SLOAD SWAP1 MLOAD SWAP1 DUP2 MSTORE RETURN JUMPDEST DUP4 SWAP1 DUP6 CALLVALUE PUSH2 0x287 JUMPI PUSH1 0x20 CALLDATASIZE PUSH1 0x3 NOT ADD SLT PUSH2 0x287 JUMPI CALLDATALOAD PUSH4 0xFFFFFFFF PUSH1 0xE0 SHL DUP2 AND DUP1 SWAP2 SUB PUSH2 0x287 JUMPI PUSH1 0x20 SWAP3 POP PUSH4 0x7965DB0B PUSH1 0xE0 SHL DUP2 EQ SWAP1 DUP2 ISZERO PUSH2 0x827 JUMPI JUMPDEST POP ISZERO ISZERO DUP2 MSTORE RETURN JUMPDEST PUSH4 0x1FFC9A7 PUSH1 0xE0 SHL EQ SWAP1 POP DUP4 PUSH2 0x820 JUMP JUMPDEST PUSH1 0x24 CALLDATALOAD SWAP1 PUSH1 0x1 PUSH1 0x1 PUSH1 0xA0 SHL SUB DUP3 AND DUP3 SUB PUSH2 0x84E JUMPI JUMP JUMPDEST PUSH1 0x0 DUP1 REVERT JUMPDEST PUSH1 0x4 CALLDATALOAD SWAP1 PUSH1 0x1 PUSH1 0x1 PUSH1 0xA0 SHL SUB DUP3 AND DUP3 SUB PUSH2 0x84E JUMPI JUMP JUMPDEST CALLER PUSH1 0x0 SWAP1 DUP2 MSTORE PUSH32 0x7D7FFB7A348E1C6A02869081A26547B49160DD3DF72D1D75A570EB9B698292EC PUSH1 0x20 MSTORE PUSH1 0x40 SWAP1 KECCAK256 SLOAD PUSH32 0xA49807205CE4D355092EF5A8A18F56E8913CF4A201FBE287825B095693C21775 SWAP1 PUSH1 0xFF AND ISZERO PUSH2 0x8C5 JUMPI POP JUMP JUMPDEST PUSH1 0x44 SWAP1 PUSH1 0x40 MLOAD SWAP1 PUSH4 0xE2517D3F PUSH1 0xE0 SHL DUP3 MSTORE CALLER PUSH1 0x4 DUP4 ADD MSTORE PUSH1 0x24 DUP3 ADD MSTORE REVERT JUMPDEST CALLER PUSH1 0x0 SWAP1 DUP2 MSTORE PUSH32 0xA629F6981C2F6895A67DC766E8E03FF72D04A413D0D8773A3CA56E9E474032C1 PUSH1 0x20 MSTORE PUSH1 0x40 SWAP1 KECCAK256 SLOAD PUSH1 0x0 DUP1 MLOAD PUSH1 0x20 PUSH2 0xCC1 DUP4 CODECOPY DUP2 MLOAD SWAP2 MSTORE SWAP1 PUSH1 0xFF AND ISZERO PUSH2 0x8C5 JUMPI POP JUMP JUMPDEST DUP1 PUSH1 0x0 MSTORE PUSH1 0x0 PUSH1 0x20 MSTORE PUSH1 0x40 PUSH1 0x0 KECCAK256 CALLER PUSH1 0x0 MSTORE PUSH1 0x20 MSTORE PUSH1 0xFF PUSH1 0x40 PUSH1 0x0 KECCAK256 SLOAD AND ISZERO PUSH2 0x8C5 JUMPI POP JUMP JUMPDEST PUSH1 0x1 PUSH1 0x1 PUSH1 0xA0 SHL SUB AND PUSH1 0x0 DUP2 DUP2 MSTORE PUSH32 0xA629F6981C2F6895A67DC766E8E03FF72D04A413D0D8773A3CA56E9E474032C1 PUSH1 0x20 MSTORE PUSH1 0x40 DUP2 KECCAK256 SLOAD SWAP1 SWAP2 SWAP1 PUSH1 0x0 DUP1 MLOAD PUSH1 0x20 PUSH2 0xCC1 DUP4 CODECOPY DUP2 MLOAD SWAP2 MSTORE SWAP1 PUSH1 0xFF AND PUSH2 0x9EE JUMPI DUP1 DUP4 MSTORE DUP3 PUSH1 0x20 MSTORE PUSH1 0x40 DUP4 KECCAK256 DUP3 DUP5 MSTORE PUSH1 0x20 MSTORE PUSH1 0x40 DUP4 KECCAK256 PUSH1 0x1 PUSH1 0xFF NOT DUP3 SLOAD AND OR SWAP1 SSTORE PUSH32 0x2F8788117E7EFF1D82E926EC794901D17C78024A50270940304540A733656F0D CALLER SWAP4 DUP1 LOG4 PUSH1 0x1 SWAP1 JUMP JUMPDEST POP POP SWAP1 JUMP JUMPDEST SWAP1 PUSH1 0x0 SWAP2 DUP1 DUP4 MSTORE DUP3 PUSH1 0x20 MSTORE PUSH1 0x40 DUP4 KECCAK256 SWAP2 PUSH1 0x1 DUP1 PUSH1 0xA0 SHL SUB AND SWAP2 DUP3 DUP5 MSTORE PUSH1 0x20 MSTORE PUSH1 0xFF PUSH1 0x40 DUP5 KECCAK256 SLOAD AND ISZERO PUSH1 0x0 EQ PUSH2 0x9EE JUMPI DUP1 DUP4 MSTORE DUP3 PUSH1 0x20 MSTORE PUSH1 0x40 DUP4 KECCAK256 DUP3 DUP5 MSTORE PUSH1 0x20 MSTORE PUSH1 0x40 DUP4 KECCAK256 PUSH1 0x1 PUSH1 0xFF NOT DUP3 SLOAD AND OR SWAP1 SSTORE PUSH32 0x2F8788117E7EFF1D82E926EC794901D17C78024A50270940304540A733656F0D CALLER SWAP4 DUP1 LOG4 PUSH1 0x1 SWAP1 JUMP JUMPDEST PUSH1 0x1 PUSH1 0x1 PUSH1 0xA0 SHL SUB AND PUSH1 0x0 DUP2 DUP2 MSTORE PUSH32 0xA629F6981C2F6895A67DC766E8E03FF72D04A413D0D8773A3CA56E9E474032C1 PUSH1 0x20 MSTORE PUSH1 0x40 DUP2 KECCAK256 SLOAD SWAP1 SWAP2 SWAP1 PUSH1 0x0 DUP1 MLOAD PUSH1 0x20 PUSH2 0xCC1 DUP4 CODECOPY DUP2 MLOAD SWAP2 MSTORE SWAP1 PUSH1 0xFF AND ISZERO PUSH2 0x9EE JUMPI DUP1 DUP4 MSTORE DUP3 PUSH1 0x20 MSTORE PUSH1 0x40 DUP4 KECCAK256 DUP3 DUP5 MSTORE PUSH1 0x20 MSTORE PUSH1 0x40 DUP4 KECCAK256 PUSH1 0xFF NOT DUP2 SLOAD AND SWAP1 SSTORE PUSH32 0xF6391F5C32D9C69D2A47EA670B442974B53935D1EDC7FD64EB21E047A839171B CALLER SWAP4 DUP1 LOG4 PUSH1 0x1 SWAP1 JUMP JUMPDEST SWAP1 PUSH1 0x0 SWAP2 DUP1 DUP4 MSTORE DUP3 PUSH1 0x20 MSTORE PUSH1 0x40 DUP4 KECCAK256 SWAP2 PUSH1 0x1 DUP1 PUSH1 0xA0 SHL SUB AND SWAP2 DUP3 DUP5 MSTORE PUSH1 0x20 MSTORE PUSH1 0xFF PUSH1 0x40 DUP5 KECCAK256 SLOAD AND PUSH1 0x0 EQ PUSH2 0x9EE JUMPI DUP1 DUP4 MSTORE DUP3 PUSH1 0x20 MSTORE PUSH1 0x40 DUP4 KECCAK256 DUP3 DUP5 MSTORE PUSH1 0x20 MSTORE PUSH1 0x40 DUP4 KECCAK256 PUSH1 0xFF NOT DUP2 SLOAD AND SWAP1 SSTORE PUSH32 0xF6391F5C32D9C69D2A47EA670B442974B53935D1EDC7FD64EB21E047A839171B CALLER SWAP4 DUP1 LOG4 PUSH1 0x1 SWAP1 JUMP JUMPDEST ISZERO PUSH2 0xB81 JUMPI JUMP JUMPDEST PUSH1 0x40 MLOAD PUSH3 0x461BCD PUSH1 0xE5 SHL DUP2 MSTORE PUSH1 0x20 PUSH1 0x4 DUP3 ADD MSTORE PUSH1 0x19 PUSH1 0x24 DUP3 ADD MSTORE PUSH32 0x4F7261636C653A207072696365206D757374206265203E203000000000000000 PUSH1 0x44 DUP3 ADD MSTORE PUSH1 0x64 SWAP1 REVERT JUMPDEST SWAP2 SWAP1 DUP3 ADD DUP1 SWAP3 GT PUSH2 0xBD3 JUMPI JUMP JUMPDEST PUSH4 0x4E487B71 PUSH1 0xE0 SHL PUSH1 0x0 MSTORE PUSH1 0x11 PUSH1 0x4 MSTORE PUSH1 0x24 PUSH1 0x0 REVERT JUMPDEST ISZERO PUSH2 0xBF0 JUMPI JUMP JUMPDEST PUSH1 0x40 MLOAD PUSH3 0x461BCD PUSH1 0xE5 SHL DUP2 MSTORE PUSH1 0x20 PUSH1 0x4 DUP3 ADD MSTORE PUSH1 0x17 PUSH1 0x24 DUP3 ADD MSTORE PUSH32 0x4F7261636C653A2075706461746520746F6F20736F6F6E000000000000000000 PUSH1 0x44 DUP3 ADD MSTORE PUSH1 0x64 SWAP1 REVERT JUMPDEST SWAP2 SWAP1 DUP3 SUB SWAP2 DUP3 GT PUSH2 0xBD3 JUMPI JUMP JUMPDEST DUP2 DUP2 MUL SWAP3 SWAP2 DUP2 ISZERO SWAP2 DUP5 DIV EQ OR ISZERO PUSH2 0xBD3 JUMPI JUMP JUMPDEST ISZERO PUSH2 0xC5C JUMPI JUMP JUMPDEST PUSH1 0x40 MLOAD PUSH3 0x461BCD PUSH1 0xE5 SHL DUP2 MSTORE PUSH1 0x20 PUSH1 0x4 DUP3 ADD MSTORE PUSH1 0x1E PUSH1 0x24 DUP3 ADD MSTORE PUSH32 0x4F7261636C653A207072696365206368616E676520746F6F206C617267650000 PUSH1 0x44 DUP3 ADD MSTORE PUSH1 0x64 SWAP1 REVERT JUMPDEST PUSH1 0x2 SLOAD SWAP1 DUP2 ISZERO PUSH2 0xCB9 JUMPI PUSH2 0xCB4 SWAP2 PUSH2 0xBC6 JUMP JUMPDEST TIMESTAMP GT SWAP1 JUMP JUMPDEST POP POP PUSH1 0x1 SWAP1 JUMP INVALID PUSH9 0xE79A7BF1E0BC45D0A3 ADDRESS 0xC5 PUSH20 0xBC367F9CF464FD326078812F301165FBDA4EF1A2 PUSH5 0x6970667358 0x22 SLT KECCAK256 0xD5 0xA9 PUSH30 0xFC42D59EB24C5810337E4CB64D6E23A44E0C9A5DA89739D54DBC5BAC7464 PUSH20 0x6F6C634300081400332F8788117E7EFF1D82E926 0xEC PUSH26 0x4901D17C78024A50270940304540A733656F0D00000000000000 "},"methodIdentifiers":{"ADMIN_ROLE()":"75b238fc","DEFAULT_ADMIN_ROLE()":"a217fddf","ORACLE_ROLE()":"07e2cea5","getMetalPrices()":"62ea9232","getPriceData()":"a4a28168","getPricePerOzE6()":"02238498","getRoleAdmin(bytes32)":"248a9ca3","grantOracleRole(address)":"df9c49a3","grantRole(bytes32,address)":"2f2ff15d","hasRole(bytes32,address)":"91d14854","isStale(uint256)":"a624a1df","lastMetalPrices()":"e86d978a","lastUpdateAt()":"199733be","maxPriceChangeRate()":"1cca8ad3","minUpdateInterval()":"0964ff26","renounceRole(bytes32,address)":"36568abe","revokeOracleRole(address)":"a5cbe415","revokeRole(bytes32,address)":"d547741f","setMaxPriceChangeRate(uint256)":"eadcbebe","setMinUpdateInterval(uint256)":"4e14a583","setPricePerOzE6(uint256)":"68c0840b","setPriceWithMetals(uint256,uint256,uint256,uint256,uint256)":"618af389","supportsInterface(bytes4)":"01ffc9a7"}}}}}