{"contracts/AuxiVesting.sol":{"AuxiVesting":{"abi":[{"inputs":[{"internalType":"address","name":"_token","type":"address"},{"internalType":"address","name":"_owner","type":"address"},{"internalType":"address[]","name":"beneficiaries","type":"address[]"},{"internalType":"uint256[]","name":"amounts","type":"uint256[]"},{"internalType":"bool[]","name":"revocable","type":"bool[]"}],"stateMutability":"nonpayable","type":"constructor"},{"inputs":[{"internalType":"address","name":"owner","type":"address"}],"name":"OwnableInvalidOwner","type":"error"},{"inputs":[{"internalType":"address","name":"account","type":"address"}],"name":"OwnableUnauthorizedAccount","type":"error"},{"inputs":[],"name":"ReentrancyGuardReentrantCall","type":"error"},{"inputs":[{"internalType":"address","name":"token","type":"address"}],"name":"SafeERC20FailedOperation","type":"error"},{"anonymous":false,"inputs":[{"indexed":true,"internalType":"uint256","name":"scheduleId","type":"uint256"},{"indexed":true,"internalType":"address","name":"oldBeneficiary","type":"address"},{"indexed":true,"internalType":"address","name":"newBeneficiary","type":"address"}],"name":"BeneficiaryChanged","type":"event"},{"anonymous":false,"inputs":[{"indexed":true,"internalType":"address","name":"previousOwner","type":"address"},{"indexed":true,"internalType":"address","name":"newOwner","type":"address"}],"name":"OwnershipTransferred","type":"event"},{"anonymous":false,"inputs":[{"indexed":true,"internalType":"uint256","name":"scheduleId","type":"uint256"},{"indexed":true,"internalType":"address","name":"beneficiary","type":"address"},{"indexed":false,"internalType":"uint256","name":"totalAmount","type":"uint256"},{"indexed":false,"internalType":"uint64","name":"start","type":"uint64"},{"indexed":false,"internalType":"uint64","name":"cliff","type":"uint64"},{"indexed":false,"internalType":"uint64","name":"end","type":"uint64"},{"indexed":false,"internalType":"bool","name":"revocable","type":"bool"}],"name":"ScheduleCreated","type":"event"},{"anonymous":false,"inputs":[{"indexed":true,"internalType":"uint256","name":"scheduleId","type":"uint256"},{"indexed":true,"internalType":"address","name":"beneficiary","type":"address"},{"indexed":false,"internalType":"uint256","name":"remainingAmount","type":"uint256"}],"name":"ScheduleRevoked","type":"event"},{"anonymous":false,"inputs":[{"indexed":true,"internalType":"uint256","name":"scheduleId","type":"uint256"},{"indexed":true,"internalType":"address","name":"beneficiary","type":"address"},{"indexed":false,"internalType":"uint256","name":"amount","type":"uint256"}],"name":"TokensReleased","type":"event"},{"inputs":[{"internalType":"address","name":"","type":"address"},{"internalType":"uint256","name":"","type":"uint256"}],"name":"beneficiarySchedules","outputs":[{"internalType":"uint256","name":"","type":"uint256"}],"stateMutability":"view","type":"function"},{"inputs":[{"internalType":"uint256","name":"scheduleId","type":"uint256"},{"internalType":"address","name":"newBeneficiary","type":"address"}],"name":"changeBeneficiary","outputs":[],"stateMutability":"nonpayable","type":"function"},{"inputs":[],"name":"contractBalance","outputs":[{"internalType":"uint256","name":"","type":"uint256"}],"stateMutability":"view","type":"function"},{"inputs":[{"internalType":"address","name":"beneficiary","type":"address"}],"name":"getScheduleIds","outputs":[{"internalType":"uint256[]","name":"","type":"uint256[]"}],"stateMutability":"view","type":"function"},{"inputs":[],"name":"getSchedulesCount","outputs":[{"internalType":"uint256","name":"","type":"uint256"}],"stateMutability":"view","type":"function"},{"inputs":[{"internalType":"uint256","name":"scheduleId","type":"uint256"}],"name":"getVestingInfo","outputs":[{"internalType":"address","name":"beneficiary","type":"address"},{"internalType":"uint256","name":"total","type":"uint256"},{"internalType":"uint256","name":"vested","type":"uint256"},{"internalType":"uint256","name":"released","type":"uint256"},{"internalType":"uint256","name":"releasable","type":"uint256"},{"internalType":"uint64","name":"start","type":"uint64"},{"internalType":"uint64","name":"cliff","type":"uint64"},{"internalType":"uint64","name":"end","type":"uint64"},{"internalType":"bool","name":"revocable","type":"bool"},{"internalType":"bool","name":"revoked","type":"bool"}],"stateMutability":"view","type":"function"},{"inputs":[],"name":"isFunded","outputs":[{"internalType":"bool","name":"","type":"bool"}],"stateMutability":"view","type":"function"},{"inputs":[],"name":"owner","outputs":[{"internalType":"address","name":"","type":"address"}],"stateMutability":"view","type":"function"},{"inputs":[{"internalType":"uint256","name":"scheduleId","type":"uint256"}],"name":"releasableAmount","outputs":[{"internalType":"uint256","name":"","type":"uint256"}],"stateMutability":"view","type":"function"},{"inputs":[{"internalType":"uint256","name":"scheduleId","type":"uint256"}],"name":"release","outputs":[],"stateMutability":"nonpayable","type":"function"},{"inputs":[{"internalType":"address","name":"beneficiary","type":"address"}],"name":"releaseAll","outputs":[],"stateMutability":"nonpayable","type":"function"},{"inputs":[],"name":"renounceOwnership","outputs":[],"stateMutability":"nonpayable","type":"function"},{"inputs":[{"internalType":"uint256","name":"scheduleId","type":"uint256"}],"name":"revoke","outputs":[],"stateMutability":"nonpayable","type":"function"},{"inputs":[{"internalType":"uint256","name":"","type":"uint256"}],"name":"schedules","outputs":[{"internalType":"address","name":"beneficiary","type":"address"},{"internalType":"uint256","name":"totalAmount","type":"uint256"},{"internalType":"uint256","name":"releasedAmount","type":"uint256"},{"internalType":"uint64","name":"start","type":"uint64"},{"internalType":"uint64","name":"cliff","type":"uint64"},{"internalType":"uint64","name":"end","type":"uint64"},{"internalType":"bool","name":"revocable","type":"bool"},{"internalType":"bool","name":"revoked","type":"bool"}],"stateMutability":"view","type":"function"},{"inputs":[],"name":"token","outputs":[{"internalType":"contract IERC20","name":"","type":"address"}],"stateMutability":"view","type":"function"},{"inputs":[],"name":"totalCommitted","outputs":[{"internalType":"uint256","name":"","type":"uint256"}],"stateMutability":"view","type":"function"},{"inputs":[],"name":"totalRequiredTokens","outputs":[{"internalType":"uint256","name":"","type":"uint256"}],"stateMutability":"view","type":"function"},{"inputs":[{"internalType":"address","name":"newOwner","type":"address"}],"name":"transferOwnership","outputs":[],"stateMutability":"nonpayable","type":"function"},{"inputs":[{"internalType":"uint256","name":"scheduleId","type":"uint256"}],"name":"vestedAmount","outputs":[{"internalType":"uint256","name":"","type":"uint256"}],"stateMutability":"view","type":"function"}],"evm":{"bytecode":{"linkReferences":{},"object":"60a060405234620007515762001a58803803806200001d8162000782565b92833981019060a08183031262000751576200003981620007a8565b916200004860208301620007a8565b60408301519093906001600160401b038111620007515783019382601f860112156200075157845194620000866200008087620007bd565b62000782565b9560208088838152019160051b830101918583116200075157602001905b828210620007675750505060608401516001600160401b038111620007515784019383601f860112156200075157845194620000e46200008087620007bd565b9560208088838152019160051b830101918683116200075157602001905b82821062000756575050506080810151906001600160401b0382116200075157019280601f850112156200075157835190620001426200008083620007bd565b9460208087858152019360051b8201019182116200075157602001915b81831062000736575050506001600160a01b03169081156200071d57600080546001600160a01b031981168417825560405193916001600160a01b03909116907f8be0079c531659141344cd1fd0a4f28419497f9722a3daafe3b4186f6b6457e09080a3600180556001600160a01b0316908115620006db5750620001e88451845114620007d5565b620001f78451835114620007d5565b835115620006965760805262278d0042019283421162000587576001600160401b0384811662ed4e000190811162000587576001600160401b038581166305a39a800193908411620005875760005b835181101562000653576001600160a01b0362000264828662000822565b5116156200060e5762000278818762000822565b5115620005c9576002546001600160a01b0362000296838762000822565b5116620002a4838962000822565b51620002b1848662000822565b516040519290151591906001600160401b03610100850190811190851117620005b35761010084016040908152908452602084019190915260009083018190526001600160401b038b811660608501528781166080850152891660a084015260c083019190915260e082015268010000000000000000821015620005b35760018201806002558210156200059d576002600081905281519083901b7f405787fa12a823e0f2b7631cc41b3ba8828b3321ca811111fa75cd3aa3bb5ace810180546001600160a01b0319166001600160a01b0393841617905560208301517f405787fa12a823e0f2b7631cc41b3ba8828b3321ca811111fa75cd3aa3bb5acf8201556040808401517f405787fa12a823e0f2b7631cc41b3ba8828b3321ca811111fa75cd3aa3bb5ad083015560608401517f405787fa12a823e0f2b7631cc41b3ba8828b3321ca811111fa75cd3aa3bb5ad1909201805460808087015160a088015160c0808a015160e0909a01516001600160d01b03199095166001600160401b0398909816979097179190951b6fffffffffffffffff0000000000000000161793901b600160801b600160c01b03169290921794151590921b60ff60c01b169390931792151560c81b60ff60c81b169290921790915560039062000496848862000822565b51166000526020526040600020805468010000000000000000811015620005b357600181018083558110156200059d57829160005260206000200155620004de828862000822565b5160045481810181116200058757016004556001600160a01b0362000504838762000822565b5116907f407b01042fb6e0077c451b7fbb247370b786d2850c37b4e2aac1e891763b648060a062000536858b62000822565b5162000543868862000822565b51604080519283526001600160401b038e811660208501528a8116918401919091528b16606083015215156080820152a36000198114620005875760010162000246565b634e487b7160e01b600052601160045260246000fd5b634e487b7160e01b600052603260045260246000fd5b634e487b7160e01b600052604160045260246000fd5b60405162461bcd60e51b815260206004820152601760248201527f56657374696e673a20616d6f756e74206973207a65726f0000000000000000006044820152606490fd5b60405162461bcd60e51b815260206004820152601c60248201527f56657374696e673a2062656e6566696369617279206973207a65726f000000006044820152606490fd5b6040516112209081620008388239608051818181610107015281816104f9015281816105a80152818161086801528181610a0c01528181610c730152610cd20152f35b60405162461bcd60e51b815260206004820152601960248201527f56657374696e673a206e6f2062656e65666963696172696573000000000000006044820152606490fd5b62461bcd60e51b815260206004820152601e60248201527f56657374696e673a20746f6b656e206973207a65726f206164647265737300006044820152606490fd5b604051631e4fbdf760e01b815260006004820152602490fd5b8251801515810362000751578152602092830192016200015f565b600080fd5b815181526020918201910162000102565b602080916200077684620007a8565b815201910190620000a4565b6040519190601f01601f191682016001600160401b03811183821017620005b357604052565b51906001600160a01b03821682036200075157565b6001600160401b038111620005b35760051b60200190565b15620007dd57565b60405162461bcd60e51b815260206004820152601860248201527f56657374696e673a206c656e677468206d69736d6174636800000000000000006044820152606490fd5b80518210156200059d5760209160051b01019056fe6040608081526004908136101561001557600080fd5b600091823560e01c9081631bfce85314610d875781631d3231d4146101c557816320c5429b14610b7057816320f6b0a914610aad578163353696a814610a8e57816337bdc99b1461095357816346ca4241146108fd578163580fc80a146107655781635927fca21461073e578163715018a6146106e457816377889776146106375781637c6543031461057c5781638b7afe2e146104ca5781638da5cb5b146104a2578163b0070a3014610280578163bdc6d9ab146101e3578163ee10e07d146101c5578163f2fde38b1461013a575063fc0c546a146100f457600080fd5b34610136578160031936011261013657517f00000000000000000000000000000000000000000000000000000000000000006001600160a01b03168152602090f35b5080fd5b9050346101c15760203660031901126101c157610155610da7565b9061015e610e2a565b6001600160a01b039182169283156101ab57505082546001600160a01b0319811683178455167f8be0079c531659141344cd1fd0a4f28419497f9722a3daafe3b4186f6b6457e08380a380f35b51631e4fbdf760e01b8152908101849052602490fd5b8280fd5b9050346101c157826003193601126101c15760209250549051908152f35b9050346101c15760203660031901126101c157359160025483101561027d575060ff61021161010093610df0565b5060018060a01b038154169260018201549060036002840154930154928392825196875260208701528186015267ffffffffffffffff91829182821660608801521c1660808501528160801c1660a0840152818160c01c16151560c084015260c81c16151560e0820152f35b80fd5b9050346101c157816003193601126101c1576001600160a01b036024803582811693803592909185900361049e576102bb6002548410610e8e565b8415610464576102ca83610df0565b50958654966102e786891696873314908115610457575b506110bd565b866003986102fe60ff8b85015460c81c1615611071565b6001600160a01b031916179055848852602087905280882096885b885480821015610448578661032e838c610dc2565b905490851b1c146103485750610343906111db565b610319565b91929394959697989060001992838101908111610436579061037d6103706103969385610dc2565b905490871b1c9184610dc2565b90919082549060031b91821b91600019901b1916179055565b80548015610424578201916103ab8383610dc2565b9091825491861b1b19169055555b8688526020528620908154926801000000000000000084101561041357505061037d82849260016103ec95018155610dc2565b7f02ac8a78ce8ba9dde4bc4c8fa91b705039803bb7eff24d075f9f2b3a5431d4838480a480f35b634e487b7160e01b88526041905286fd5b634e487b7160e01b8b5260318752858bfd5b634e487b7160e01b8c5260118852868cfd5b505090919293949596506103b9565b90508a54163314386102e1565b906015606492602088519362461bcd60e51b85528401528201527456657374696e673a207a65726f206164647265737360581b6044820152fd5b8680fd5b505034610136578160031936011261013657905490516001600160a01b039091168152602090f35b919050346101c157826003193601126101c15780516370a0823160e01b815230928101929092526020826024817f00000000000000000000000000000000000000000000000000000000000000006001600160a01b03165afa91821561057257839261053b575b6020838351908152f35b9091506020813d821161056a575b8161055660209383610e56565b810103126101c15760209250519038610531565b3d9150610549565b81513d85823e3d90fd5b9050346101c157826003193601126101c15781516370a0823160e01b81523082820152906020826024817f00000000000000000000000000000000000000000000000000000000000000006001600160a01b03165afa91821561062a5784926105ef575b50602093505411159051908152f35b9091506020813d8211610622575b8161060a60209383610e56565b8101031261061e57602093505190386105e0565b8380fd5b3d91506105fd565b50505051903d90823e3d90fd5b82843461027d576020908160031936011261027d5782906001600160a01b0361065e610da7565b16815260038352818120908251808584549182815201908194845286842090845b8181106106d05750505081610695910382610e56565b83519485948186019282875251809352850193925b8281106106b957505050500390f35b8351855286955093810193928101926001016106aa565b82548452928801926001928301920161067f565b833461027d578060031936011261027d576106fd610e2a565b80546001600160a01b03198116825581906001600160a01b03167f8be0079c531659141344cd1fd0a4f28419497f9722a3daafe3b4186f6b6457e08280a380f35b82843461027d57602036600319011261027d575061075e6020923561103d565b9051908152f35b838334610136576020806003193601126101c157610781610da7565b9061078a6111b8565b6001600160a01b039182168452600380825283852084518154808252918752838720909792939291889081850190895b868282106108e7575050506107d192500388610e56565b8651156108ae5750845b86518110156108a65780826108269260051b890101516107fa81610df0565b509060ff8683015460c81c1661089f576108138161103d565b9185888461082b575b50505050506111db565b6107db565b8260027fa6c812047c4dc10f52f9e7943b1b3dfafae864d5e0d4ded081bbbde69dd6ff0d940161085c878254611109565b905561088c86838354167f0000000000000000000000000000000000000000000000000000000000000000611116565b5416938a51908152a3888080858861081c565b50506111db565b856001805580f35b60649185519162461bcd60e51b8352820152601560248201527456657374696e673a206e6f207363686564756c657360581b6044820152fd5b855484526001958601958d9550930192016107ba565b505034610136578060031936011261013657610917610da7565b6001600160a01b0316825260036020528082208054602435939084101561027d575060209261094591610dc2565b90549060031b1c9051908152f35b9050346101c15760203660031901126101c1578035906109716111b8565b61097e6002548310610e8e565b61098782610df0565b5061099c60ff600383015460c81c1615611071565b80546001600160a01b03919082163381148015610a82575b6109bd906110bd565b6109c68561103d565b938415610a3f57509181610a308560209560027fa6c812047c4dc10f52f9e7943b1b3dfafae864d5e0d4ded081bbbde69dd6ff0d989601610a08838254611109565b90557f0000000000000000000000000000000000000000000000000000000000000000611116565b54169451908152a36001805580f35b606490602088519162461bcd60e51b8352820152601b60248201527f56657374696e673a206e6f7468696e6720746f2072656c6561736500000000006044820152fd5b508654831633146109b4565b5050346101365781600319360112610136576020906002549051908152f35b9050346101c15760203660031901126101c157610140925035610ad36002548210610e8e565b610ae5610adf82610df0565b50610eda565b60018060a01b0381511692602082015192610aff81610f80565b610b0c838501519261103d565b67ffffffffffffffff928360608701511692846080880151169460a0880151169560e060c0890151151598015115159881519a8b5260208b01528901526060880152608087015260a086015260c085015260e0840152610100830152610120820152f35b9050346101c15760203660031901126101c157803590610b8e610e2a565b610b966111b8565b610ba36002548310610e8e565b610bac82610df0565b506003810191825460ff8160c01c1615610d4b5760c81c60ff16610d0857916020917fcfb0e1f97bc375d6b68398d705dac100573940a50fbf4a871c186ad55909cc8c93610c20610bfc87610f80565b6002840181610c0c825482610f5d565b9182610c9d575b5050506001840154610f5d565b835460ff60c81b1916600160c81b1790935582610c53575b505494519081526001600160a01b0390941693a36001805580f35b610c5e838254610f5d565b90558654610c979083906001600160a01b03167f0000000000000000000000000000000000000000000000000000000000000000611116565b38610c38565b55887fa6c812047c4dc10f52f9e7943b1b3dfafae864d5e0d4ded081bbbde69dd6ff0d8860018060a01b03610cf685828b54167f0000000000000000000000000000000000000000000000000000000000000000611116565b885416938d51908152a3388181610c13565b606490602086519162461bcd60e51b8352820152601860248201527f56657374696e673a20616c7265616479207265766f6b656400000000000000006044820152fd5b855162461bcd60e51b8152602081840152601660248201527556657374696e673a206e6f74207265766f6361626c6560501b6044820152606490fd5b82843461027d57602036600319011261027d575061075e60209235610f80565b600435906001600160a01b0382168203610dbd57565b600080fd5b8054821015610dda5760005260206000200190600090565b634e487b7160e01b600052603260045260246000fd5b600254811015610dda57600260005260021b7f405787fa12a823e0f2b7631cc41b3ba8828b3321ca811111fa75cd3aa3bb5ace0190600090565b6000546001600160a01b03163303610e3e57565b60405163118cdaa760e01b8152336004820152602490fd5b90601f8019910116810190811067ffffffffffffffff821117610e7857604052565b634e487b7160e01b600052604160045260246000fd5b15610e9557565b60405162461bcd60e51b815260206004820152601960248201527f56657374696e673a20696e76616c6964207363686564756c65000000000000006044820152606490fd5b90604051610100810167ffffffffffffffff9082811082821117610e785760e09160ff916040526003849660018060a01b03815416865260018101546020870152600281015460408701520154908082166060860152808260401c1660808601528160801c1660a0850152818160c01c16151560c085015260c81c161515910152565b91908203918211610f6a57565b634e487b7160e01b600052601160045260246000fd5b610adf610f9991610f946002548210610e8e565b610df0565b60e0810151611036576080810167ffffffffffffffff8082511691824210600014610fc75750505050600090565b60a08401805190939083164210610fe357505050506020015190565b82610fef819242610f5d565b945116915116900390808211610f6a5760209116920151818102918183041490151715610f6a578115611020570490565b634e487b7160e01b600052601260045260246000fd5b6040015190565b600261105161104b83610f80565b92610df0565b5001546000918181111561106c576110699250610f5d565b90565b505090565b1561107857565b60405162461bcd60e51b815260206004820152601960248201527f56657374696e673a207363686564756c65207265766f6b6564000000000000006044820152606490fd5b156110c457565b60405162461bcd60e51b815260206004820152601760248201527f56657374696e673a206e6f7420617574686f72697a65640000000000000000006044820152606490fd5b91908201809211610f6a57565b60405163a9059cbb60e01b602082019081526001600160a01b0393841660248301526044808301959095529381529092608082019067ffffffffffffffff821183831017610e7857602092600092604052519082865af1156111ac576000513d6111a357508082163b155b611189575050565b604051635274afe760e01b81529116600482015260249150fd5b60011415611181565b6040513d6000823e3d90fd5b6002600154146111c9576002600155565b604051633ee5aeb560e01b8152600490fd5b6000198114610f6a576001019056fea264697066735822122030233b9dbb1fddd12eb0c86565d039351ec2f6db789283ce3832b08c4e24f75a64736f6c63430008140033","opcodes":"PUSH1 0xA0 PUSH1 0x40 MSTORE CALLVALUE PUSH3 0x751 JUMPI PUSH3 0x1A58 DUP1 CODESIZE SUB DUP1 PUSH3 0x1D DUP2 PUSH3 0x782 JUMP JUMPDEST SWAP3 DUP4 CODECOPY DUP2 ADD SWAP1 PUSH1 0xA0 DUP2 DUP4 SUB SLT PUSH3 0x751 JUMPI PUSH3 0x39 DUP2 PUSH3 0x7A8 JUMP JUMPDEST SWAP2 PUSH3 0x48 PUSH1 0x20 DUP4 ADD PUSH3 0x7A8 JUMP JUMPDEST PUSH1 0x40 DUP4 ADD MLOAD SWAP1 SWAP4 SWAP1 PUSH1 0x1 PUSH1 0x1 PUSH1 0x40 SHL SUB DUP2 GT PUSH3 0x751 JUMPI DUP4 ADD SWAP4 DUP3 PUSH1 0x1F DUP7 ADD SLT ISZERO PUSH3 0x751 JUMPI DUP5 MLOAD SWAP5 PUSH3 0x86 PUSH3 0x80 DUP8 PUSH3 0x7BD JUMP JUMPDEST PUSH3 0x782 JUMP JUMPDEST SWAP6 PUSH1 0x20 DUP1 DUP9 DUP4 DUP2 MSTORE ADD SWAP2 PUSH1 0x5 SHL DUP4 ADD ADD SWAP2 DUP6 DUP4 GT PUSH3 0x751 JUMPI PUSH1 0x20 ADD SWAP1 JUMPDEST DUP3 DUP3 LT PUSH3 0x767 JUMPI POP POP POP PUSH1 0x60 DUP5 ADD MLOAD PUSH1 0x1 PUSH1 0x1 PUSH1 0x40 SHL SUB DUP2 GT PUSH3 0x751 JUMPI DUP5 ADD SWAP4 DUP4 PUSH1 0x1F DUP7 ADD SLT ISZERO PUSH3 0x751 JUMPI DUP5 MLOAD SWAP5 PUSH3 0xE4 PUSH3 0x80 DUP8 PUSH3 0x7BD JUMP JUMPDEST SWAP6 PUSH1 0x20 DUP1 DUP9 DUP4 DUP2 MSTORE ADD SWAP2 PUSH1 0x5 SHL DUP4 ADD ADD SWAP2 DUP7 DUP4 GT PUSH3 0x751 JUMPI PUSH1 0x20 ADD SWAP1 JUMPDEST DUP3 DUP3 LT PUSH3 0x756 JUMPI POP POP POP PUSH1 0x80 DUP2 ADD MLOAD SWAP1 PUSH1 0x1 PUSH1 0x1 PUSH1 0x40 SHL SUB DUP3 GT PUSH3 0x751 JUMPI ADD SWAP3 DUP1 PUSH1 0x1F DUP6 ADD SLT ISZERO PUSH3 0x751 JUMPI DUP4 MLOAD SWAP1 PUSH3 0x142 PUSH3 0x80 DUP4 PUSH3 0x7BD JUMP JUMPDEST SWAP5 PUSH1 0x20 DUP1 DUP8 DUP6 DUP2 MSTORE ADD SWAP4 PUSH1 0x5 SHL DUP3 ADD ADD SWAP2 DUP3 GT PUSH3 0x751 JUMPI PUSH1 0x20 ADD SWAP2 JUMPDEST DUP2 DUP4 LT PUSH3 0x736 JUMPI POP POP POP PUSH1 0x1 PUSH1 0x1 PUSH1 0xA0 SHL SUB AND SWAP1 DUP2 ISZERO PUSH3 0x71D JUMPI PUSH1 0x0 DUP1 SLOAD PUSH1 0x1 PUSH1 0x1 PUSH1 0xA0 SHL SUB NOT DUP2 AND DUP5 OR DUP3 SSTORE PUSH1 0x40 MLOAD SWAP4 SWAP2 PUSH1 0x1 PUSH1 0x1 PUSH1 0xA0 SHL SUB SWAP1 SWAP2 AND SWAP1 PUSH32 0x8BE0079C531659141344CD1FD0A4F28419497F9722A3DAAFE3B4186F6B6457E0 SWAP1 DUP1 LOG3 PUSH1 0x1 DUP1 SSTORE PUSH1 0x1 PUSH1 0x1 PUSH1 0xA0 SHL SUB AND SWAP1 DUP2 ISZERO PUSH3 0x6DB JUMPI POP PUSH3 0x1E8 DUP5 MLOAD DUP5 MLOAD EQ PUSH3 0x7D5 JUMP JUMPDEST PUSH3 0x1F7 DUP5 MLOAD DUP4 MLOAD EQ PUSH3 0x7D5 JUMP JUMPDEST DUP4 MLOAD ISZERO PUSH3 0x696 JUMPI PUSH1 0x80 MSTORE PUSH3 0x278D00 TIMESTAMP ADD SWAP3 DUP4 TIMESTAMP GT PUSH3 0x587 JUMPI PUSH1 0x1 PUSH1 0x1 PUSH1 0x40 SHL SUB DUP5 DUP2 AND PUSH3 0xED4E00 ADD SWAP1 DUP2 GT PUSH3 0x587 JUMPI PUSH1 0x1 PUSH1 0x1 PUSH1 0x40 SHL SUB DUP6 DUP2 AND PUSH4 0x5A39A80 ADD SWAP4 SWAP1 DUP5 GT PUSH3 0x587 JUMPI PUSH1 0x0 JUMPDEST DUP4 MLOAD DUP2 LT ISZERO PUSH3 0x653 JUMPI PUSH1 0x1 PUSH1 0x1 PUSH1 0xA0 SHL SUB PUSH3 0x264 DUP3 DUP7 PUSH3 0x822 JUMP JUMPDEST MLOAD AND ISZERO PUSH3 0x60E JUMPI PUSH3 0x278 DUP2 DUP8 PUSH3 0x822 JUMP JUMPDEST MLOAD ISZERO PUSH3 0x5C9 JUMPI PUSH1 0x2 SLOAD PUSH1 0x1 PUSH1 0x1 PUSH1 0xA0 SHL SUB PUSH3 0x296 DUP4 DUP8 PUSH3 0x822 JUMP JUMPDEST MLOAD AND PUSH3 0x2A4 DUP4 DUP10 PUSH3 0x822 JUMP JUMPDEST MLOAD PUSH3 0x2B1 DUP5 DUP7 PUSH3 0x822 JUMP JUMPDEST MLOAD PUSH1 0x40 MLOAD SWAP3 SWAP1 ISZERO ISZERO SWAP2 SWAP1 PUSH1 0x1 PUSH1 0x1 PUSH1 0x40 SHL SUB PUSH2 0x100 DUP6 ADD SWAP1 DUP2 GT SWAP1 DUP6 GT OR PUSH3 0x5B3 JUMPI PUSH2 0x100 DUP5 ADD PUSH1 0x40 SWAP1 DUP2 MSTORE SWAP1 DUP5 MSTORE PUSH1 0x20 DUP5 ADD SWAP2 SWAP1 SWAP2 MSTORE PUSH1 0x0 SWAP1 DUP4 ADD DUP2 SWAP1 MSTORE PUSH1 0x1 PUSH1 0x1 PUSH1 0x40 SHL SUB DUP12 DUP2 AND PUSH1 0x60 DUP6 ADD MSTORE DUP8 DUP2 AND PUSH1 0x80 DUP6 ADD MSTORE DUP10 AND PUSH1 0xA0 DUP5 ADD MSTORE PUSH1 0xC0 DUP4 ADD SWAP2 SWAP1 SWAP2 MSTORE PUSH1 0xE0 DUP3 ADD MSTORE PUSH9 0x10000000000000000 DUP3 LT ISZERO PUSH3 0x5B3 JUMPI PUSH1 0x1 DUP3 ADD DUP1 PUSH1 0x2 SSTORE DUP3 LT ISZERO PUSH3 0x59D JUMPI PUSH1 0x2 PUSH1 0x0 DUP2 SWAP1 MSTORE DUP2 MLOAD SWAP1 DUP4 SWAP1 SHL PUSH32 0x405787FA12A823E0F2B7631CC41B3BA8828B3321CA811111FA75CD3AA3BB5ACE DUP2 ADD DUP1 SLOAD PUSH1 0x1 PUSH1 0x1 PUSH1 0xA0 SHL SUB NOT AND PUSH1 0x1 PUSH1 0x1 PUSH1 0xA0 SHL SUB SWAP4 DUP5 AND OR SWAP1 SSTORE PUSH1 0x20 DUP4 ADD MLOAD PUSH32 0x405787FA12A823E0F2B7631CC41B3BA8828B3321CA811111FA75CD3AA3BB5ACF DUP3 ADD SSTORE PUSH1 0x40 DUP1 DUP5 ADD MLOAD PUSH32 0x405787FA12A823E0F2B7631CC41B3BA8828B3321CA811111FA75CD3AA3BB5AD0 DUP4 ADD SSTORE PUSH1 0x60 DUP5 ADD MLOAD PUSH32 0x405787FA12A823E0F2B7631CC41B3BA8828B3321CA811111FA75CD3AA3BB5AD1 SWAP1 SWAP3 ADD DUP1 SLOAD PUSH1 0x80 DUP1 DUP8 ADD MLOAD PUSH1 0xA0 DUP9 ADD MLOAD PUSH1 0xC0 DUP1 DUP11 ADD MLOAD PUSH1 0xE0 SWAP1 SWAP11 ADD MLOAD PUSH1 0x1 PUSH1 0x1 PUSH1 0xD0 SHL SUB NOT SWAP1 SWAP6 AND PUSH1 0x1 PUSH1 0x1 PUSH1 0x40 SHL SUB SWAP9 SWAP1 SWAP9 AND SWAP8 SWAP1 SWAP8 OR SWAP2 SWAP1 SWAP6 SHL PUSH16 0xFFFFFFFFFFFFFFFF0000000000000000 AND OR SWAP4 SWAP1 SHL PUSH1 0x1 PUSH1 0x80 SHL PUSH1 0x1 PUSH1 0xC0 SHL SUB AND SWAP3 SWAP1 SWAP3 OR SWAP5 ISZERO ISZERO SWAP1 SWAP3 SHL PUSH1 0xFF PUSH1 0xC0 SHL AND SWAP4 SWAP1 SWAP4 OR SWAP3 ISZERO ISZERO PUSH1 0xC8 SHL PUSH1 0xFF PUSH1 0xC8 SHL AND SWAP3 SWAP1 SWAP3 OR SWAP1 SWAP2 SSTORE PUSH1 0x3 SWAP1 PUSH3 0x496 DUP5 DUP9 PUSH3 0x822 JUMP JUMPDEST MLOAD AND PUSH1 0x0 MSTORE PUSH1 0x20 MSTORE PUSH1 0x40 PUSH1 0x0 KECCAK256 DUP1 SLOAD PUSH9 0x10000000000000000 DUP2 LT ISZERO PUSH3 0x5B3 JUMPI PUSH1 0x1 DUP2 ADD DUP1 DUP4 SSTORE DUP2 LT ISZERO PUSH3 0x59D JUMPI DUP3 SWAP2 PUSH1 0x0 MSTORE PUSH1 0x20 PUSH1 0x0 KECCAK256 ADD SSTORE PUSH3 0x4DE DUP3 DUP9 PUSH3 0x822 JUMP JUMPDEST MLOAD PUSH1 0x4 SLOAD DUP2 DUP2 ADD DUP2 GT PUSH3 0x587 JUMPI ADD PUSH1 0x4 SSTORE PUSH1 0x1 PUSH1 0x1 PUSH1 0xA0 SHL SUB PUSH3 0x504 DUP4 DUP8 PUSH3 0x822 JUMP JUMPDEST MLOAD AND SWAP1 PUSH32 0x407B01042FB6E0077C451B7FBB247370B786D2850C37B4E2AAC1E891763B6480 PUSH1 0xA0 PUSH3 0x536 DUP6 DUP12 PUSH3 0x822 JUMP JUMPDEST MLOAD PUSH3 0x543 DUP7 DUP9 PUSH3 0x822 JUMP JUMPDEST MLOAD PUSH1 0x40 DUP1 MLOAD SWAP3 DUP4 MSTORE PUSH1 0x1 PUSH1 0x1 PUSH1 0x40 SHL SUB DUP15 DUP2 AND PUSH1 0x20 DUP6 ADD MSTORE DUP11 DUP2 AND SWAP2 DUP5 ADD SWAP2 SWAP1 SWAP2 MSTORE DUP12 AND PUSH1 0x60 DUP4 ADD MSTORE ISZERO ISZERO PUSH1 0x80 DUP3 ADD MSTORE LOG3 PUSH1 0x0 NOT DUP2 EQ PUSH3 0x587 JUMPI PUSH1 0x1 ADD PUSH3 0x246 JUMP JUMPDEST PUSH4 0x4E487B71 PUSH1 0xE0 SHL PUSH1 0x0 MSTORE PUSH1 0x11 PUSH1 0x4 MSTORE PUSH1 0x24 PUSH1 0x0 REVERT JUMPDEST PUSH4 0x4E487B71 PUSH1 0xE0 SHL PUSH1 0x0 MSTORE PUSH1 0x32 PUSH1 0x4 MSTORE PUSH1 0x24 PUSH1 0x0 REVERT JUMPDEST PUSH4 0x4E487B71 PUSH1 0xE0 SHL PUSH1 0x0 MSTORE PUSH1 0x41 PUSH1 0x4 MSTORE PUSH1 0x24 PUSH1 0x0 REVERT JUMPDEST PUSH1 0x40 MLOAD PUSH3 0x461BCD PUSH1 0xE5 SHL DUP2 MSTORE PUSH1 0x20 PUSH1 0x4 DUP3 ADD MSTORE PUSH1 0x17 PUSH1 0x24 DUP3 ADD MSTORE PUSH32 0x56657374696E673A20616D6F756E74206973207A65726F000000000000000000 PUSH1 0x44 DUP3 ADD MSTORE PUSH1 0x64 SWAP1 REVERT JUMPDEST PUSH1 0x40 MLOAD PUSH3 0x461BCD PUSH1 0xE5 SHL DUP2 MSTORE PUSH1 0x20 PUSH1 0x4 DUP3 ADD MSTORE PUSH1 0x1C PUSH1 0x24 DUP3 ADD MSTORE PUSH32 0x56657374696E673A2062656E6566696369617279206973207A65726F00000000 PUSH1 0x44 DUP3 ADD MSTORE PUSH1 0x64 SWAP1 REVERT JUMPDEST PUSH1 0x40 MLOAD PUSH2 0x1220 SWAP1 DUP2 PUSH3 0x838 DUP3 CODECOPY PUSH1 0x80 MLOAD DUP2 DUP2 DUP2 PUSH2 0x107 ADD MSTORE DUP2 DUP2 PUSH2 0x4F9 ADD MSTORE DUP2 DUP2 PUSH2 0x5A8 ADD MSTORE DUP2 DUP2 PUSH2 0x868 ADD MSTORE DUP2 DUP2 PUSH2 0xA0C ADD MSTORE DUP2 DUP2 PUSH2 0xC73 ADD MSTORE PUSH2 0xCD2 ADD MSTORE RETURN JUMPDEST PUSH1 0x40 MLOAD PUSH3 0x461BCD PUSH1 0xE5 SHL DUP2 MSTORE PUSH1 0x20 PUSH1 0x4 DUP3 ADD MSTORE PUSH1 0x19 PUSH1 0x24 DUP3 ADD MSTORE PUSH32 0x56657374696E673A206E6F2062656E6566696369617269657300000000000000 PUSH1 0x44 DUP3 ADD MSTORE PUSH1 0x64 SWAP1 REVERT JUMPDEST PUSH3 0x461BCD PUSH1 0xE5 SHL DUP2 MSTORE PUSH1 0x20 PUSH1 0x4 DUP3 ADD MSTORE PUSH1 0x1E PUSH1 0x24 DUP3 ADD MSTORE PUSH32 0x56657374696E673A20746F6B656E206973207A65726F20616464726573730000 PUSH1 0x44 DUP3 ADD MSTORE PUSH1 0x64 SWAP1 REVERT JUMPDEST PUSH1 0x40 MLOAD PUSH4 0x1E4FBDF7 PUSH1 0xE0 SHL DUP2 MSTORE PUSH1 0x0 PUSH1 0x4 DUP3 ADD MSTORE PUSH1 0x24 SWAP1 REVERT JUMPDEST DUP3 MLOAD DUP1 ISZERO ISZERO DUP2 SUB PUSH3 0x751 JUMPI DUP2 MSTORE PUSH1 0x20 SWAP3 DUP4 ADD SWAP3 ADD PUSH3 0x15F JUMP JUMPDEST PUSH1 0x0 DUP1 REVERT JUMPDEST DUP2 MLOAD DUP2 MSTORE PUSH1 0x20 SWAP2 DUP3 ADD SWAP2 ADD PUSH3 0x102 JUMP JUMPDEST PUSH1 0x20 DUP1 SWAP2 PUSH3 0x776 DUP5 PUSH3 0x7A8 JUMP JUMPDEST DUP2 MSTORE ADD SWAP2 ADD SWAP1 PUSH3 0xA4 JUMP JUMPDEST PUSH1 0x40 MLOAD SWAP2 SWAP1 PUSH1 0x1F ADD PUSH1 0x1F NOT AND DUP3 ADD PUSH1 0x1 PUSH1 0x1 PUSH1 0x40 SHL SUB DUP2 GT DUP4 DUP3 LT OR PUSH3 0x5B3 JUMPI PUSH1 0x40 MSTORE JUMP JUMPDEST MLOAD SWAP1 PUSH1 0x1 PUSH1 0x1 PUSH1 0xA0 SHL SUB DUP3 AND DUP3 SUB PUSH3 0x751 JUMPI JUMP JUMPDEST PUSH1 0x1 PUSH1 0x1 PUSH1 0x40 SHL SUB DUP2 GT PUSH3 0x5B3 JUMPI PUSH1 0x5 SHL PUSH1 0x20 ADD SWAP1 JUMP JUMPDEST ISZERO PUSH3 0x7DD JUMPI JUMP JUMPDEST PUSH1 0x40 MLOAD PUSH3 0x461BCD PUSH1 0xE5 SHL DUP2 MSTORE PUSH1 0x20 PUSH1 0x4 DUP3 ADD MSTORE PUSH1 0x18 PUSH1 0x24 DUP3 ADD MSTORE PUSH32 0x56657374696E673A206C656E677468206D69736D617463680000000000000000 PUSH1 0x44 DUP3 ADD MSTORE PUSH1 0x64 SWAP1 REVERT JUMPDEST DUP1 MLOAD DUP3 LT ISZERO PUSH3 0x59D JUMPI PUSH1 0x20 SWAP2 PUSH1 0x5 SHL ADD ADD SWAP1 JUMP INVALID PUSH1 0x40 PUSH1 0x80 DUP2 MSTORE PUSH1 0x4 SWAP1 DUP2 CALLDATASIZE LT ISZERO PUSH2 0x15 JUMPI PUSH1 0x0 DUP1 REVERT JUMPDEST PUSH1 0x0 SWAP2 DUP3 CALLDATALOAD PUSH1 0xE0 SHR SWAP1 DUP2 PUSH4 0x1BFCE853 EQ PUSH2 0xD87 JUMPI DUP2 PUSH4 0x1D3231D4 EQ PUSH2 0x1C5 JUMPI DUP2 PUSH4 0x20C5429B EQ PUSH2 0xB70 JUMPI DUP2 PUSH4 0x20F6B0A9 EQ PUSH2 0xAAD JUMPI DUP2 PUSH4 0x353696A8 EQ PUSH2 0xA8E JUMPI DUP2 PUSH4 0x37BDC99B EQ PUSH2 0x953 JUMPI DUP2 PUSH4 0x46CA4241 EQ PUSH2 0x8FD JUMPI DUP2 PUSH4 0x580FC80A EQ PUSH2 0x765 JUMPI DUP2 PUSH4 0x5927FCA2 EQ PUSH2 0x73E JUMPI DUP2 PUSH4 0x715018A6 EQ PUSH2 0x6E4 JUMPI DUP2 PUSH4 0x77889776 EQ PUSH2 0x637 JUMPI DUP2 PUSH4 0x7C654303 EQ PUSH2 0x57C JUMPI DUP2 PUSH4 0x8B7AFE2E EQ PUSH2 0x4CA JUMPI DUP2 PUSH4 0x8DA5CB5B EQ PUSH2 0x4A2 JUMPI DUP2 PUSH4 0xB0070A30 EQ PUSH2 0x280 JUMPI DUP2 PUSH4 0xBDC6D9AB EQ PUSH2 0x1E3 JUMPI DUP2 PUSH4 0xEE10E07D EQ PUSH2 0x1C5 JUMPI DUP2 PUSH4 0xF2FDE38B EQ PUSH2 0x13A JUMPI POP PUSH4 0xFC0C546A EQ PUSH2 0xF4 JUMPI PUSH1 0x0 DUP1 REVERT JUMPDEST CALLVALUE PUSH2 0x136 JUMPI DUP2 PUSH1 0x3 NOT CALLDATASIZE ADD SLT PUSH2 0x136 JUMPI MLOAD PUSH32 0x0 PUSH1 0x1 PUSH1 0x1 PUSH1 0xA0 SHL SUB AND DUP2 MSTORE PUSH1 0x20 SWAP1 RETURN JUMPDEST POP DUP1 REVERT JUMPDEST SWAP1 POP CALLVALUE PUSH2 0x1C1 JUMPI PUSH1 0x20 CALLDATASIZE PUSH1 0x3 NOT ADD SLT PUSH2 0x1C1 JUMPI PUSH2 0x155 PUSH2 0xDA7 JUMP JUMPDEST SWAP1 PUSH2 0x15E PUSH2 0xE2A JUMP JUMPDEST PUSH1 0x1 PUSH1 0x1 PUSH1 0xA0 SHL SUB SWAP2 DUP3 AND SWAP3 DUP4 ISZERO PUSH2 0x1AB JUMPI POP POP DUP3 SLOAD PUSH1 0x1 PUSH1 0x1 PUSH1 0xA0 SHL SUB NOT DUP2 AND DUP4 OR DUP5 SSTORE AND PUSH32 0x8BE0079C531659141344CD1FD0A4F28419497F9722A3DAAFE3B4186F6B6457E0 DUP4 DUP1 LOG3 DUP1 RETURN JUMPDEST MLOAD PUSH4 0x1E4FBDF7 PUSH1 0xE0 SHL DUP2 MSTORE SWAP1 DUP2 ADD DUP5 SWAP1 MSTORE PUSH1 0x24 SWAP1 REVERT JUMPDEST DUP3 DUP1 REVERT JUMPDEST SWAP1 POP CALLVALUE PUSH2 0x1C1 JUMPI DUP3 PUSH1 0x3 NOT CALLDATASIZE ADD SLT PUSH2 0x1C1 JUMPI PUSH1 0x20 SWAP3 POP SLOAD SWAP1 MLOAD SWAP1 DUP2 MSTORE RETURN JUMPDEST SWAP1 POP CALLVALUE PUSH2 0x1C1 JUMPI PUSH1 0x20 CALLDATASIZE PUSH1 0x3 NOT ADD SLT PUSH2 0x1C1 JUMPI CALLDATALOAD SWAP2 PUSH1 0x2 SLOAD DUP4 LT ISZERO PUSH2 0x27D JUMPI POP PUSH1 0xFF PUSH2 0x211 PUSH2 0x100 SWAP4 PUSH2 0xDF0 JUMP JUMPDEST POP PUSH1 0x1 DUP1 PUSH1 0xA0 SHL SUB DUP2 SLOAD AND SWAP3 PUSH1 0x1 DUP3 ADD SLOAD SWAP1 PUSH1 0x3 PUSH1 0x2 DUP5 ADD SLOAD SWAP4 ADD SLOAD SWAP3 DUP4 SWAP3 DUP3 MLOAD SWAP7 DUP8 MSTORE PUSH1 0x20 DUP8 ADD MSTORE DUP2 DUP7 ADD MSTORE PUSH8 0xFFFFFFFFFFFFFFFF SWAP2 DUP3 SWAP2 DUP3 DUP3 AND PUSH1 0x60 DUP9 ADD MSTORE SHR AND PUSH1 0x80 DUP6 ADD MSTORE DUP2 PUSH1 0x80 SHR AND PUSH1 0xA0 DUP5 ADD MSTORE DUP2 DUP2 PUSH1 0xC0 SHR AND ISZERO ISZERO PUSH1 0xC0 DUP5 ADD MSTORE PUSH1 0xC8 SHR AND ISZERO ISZERO PUSH1 0xE0 DUP3 ADD MSTORE RETURN JUMPDEST DUP1 REVERT JUMPDEST SWAP1 POP CALLVALUE PUSH2 0x1C1 JUMPI DUP2 PUSH1 0x3 NOT CALLDATASIZE ADD SLT PUSH2 0x1C1 JUMPI PUSH1 0x1 PUSH1 0x1 PUSH1 0xA0 SHL SUB PUSH1 0x24 DUP1 CALLDATALOAD DUP3 DUP2 AND SWAP4 DUP1 CALLDATALOAD SWAP3 SWAP1 SWAP2 DUP6 SWAP1 SUB PUSH2 0x49E JUMPI PUSH2 0x2BB PUSH1 0x2 SLOAD DUP5 LT PUSH2 0xE8E JUMP JUMPDEST DUP5 ISZERO PUSH2 0x464 JUMPI PUSH2 0x2CA DUP4 PUSH2 0xDF0 JUMP JUMPDEST POP SWAP6 DUP7 SLOAD SWAP7 PUSH2 0x2E7 DUP7 DUP10 AND SWAP7 DUP8 CALLER EQ SWAP1 DUP2 ISZERO PUSH2 0x457 JUMPI JUMPDEST POP PUSH2 0x10BD JUMP JUMPDEST DUP7 PUSH1 0x3 SWAP9 PUSH2 0x2FE PUSH1 0xFF DUP12 DUP6 ADD SLOAD PUSH1 0xC8 SHR AND ISZERO PUSH2 0x1071 JUMP JUMPDEST PUSH1 0x1 PUSH1 0x1 PUSH1 0xA0 SHL SUB NOT AND OR SWAP1 SSTORE DUP5 DUP9 MSTORE PUSH1 0x20 DUP8 SWAP1 MSTORE DUP1 DUP9 KECCAK256 SWAP7 DUP9 JUMPDEST DUP9 SLOAD DUP1 DUP3 LT ISZERO PUSH2 0x448 JUMPI DUP7 PUSH2 0x32E DUP4 DUP13 PUSH2 0xDC2 JUMP JUMPDEST SWAP1 SLOAD SWAP1 DUP6 SHL SHR EQ PUSH2 0x348 JUMPI POP PUSH2 0x343 SWAP1 PUSH2 0x11DB JUMP JUMPDEST PUSH2 0x319 JUMP JUMPDEST SWAP2 SWAP3 SWAP4 SWAP5 SWAP6 SWAP7 SWAP8 SWAP9 SWAP1 PUSH1 0x0 NOT SWAP3 DUP4 DUP2 ADD SWAP1 DUP2 GT PUSH2 0x436 JUMPI SWAP1 PUSH2 0x37D PUSH2 0x370 PUSH2 0x396 SWAP4 DUP6 PUSH2 0xDC2 JUMP JUMPDEST SWAP1 SLOAD SWAP1 DUP8 SHL SHR SWAP2 DUP5 PUSH2 0xDC2 JUMP JUMPDEST SWAP1 SWAP2 SWAP1 DUP3 SLOAD SWAP1 PUSH1 0x3 SHL SWAP2 DUP3 SHL SWAP2 PUSH1 0x0 NOT SWAP1 SHL NOT AND OR SWAP1 SSTORE JUMP JUMPDEST DUP1 SLOAD DUP1 ISZERO PUSH2 0x424 JUMPI DUP3 ADD SWAP2 PUSH2 0x3AB DUP4 DUP4 PUSH2 0xDC2 JUMP JUMPDEST SWAP1 SWAP2 DUP3 SLOAD SWAP2 DUP7 SHL SHL NOT AND SWAP1 SSTORE SSTORE JUMPDEST DUP7 DUP9 MSTORE PUSH1 0x20 MSTORE DUP7 KECCAK256 SWAP1 DUP2 SLOAD SWAP3 PUSH9 0x10000000000000000 DUP5 LT ISZERO PUSH2 0x413 JUMPI POP POP PUSH2 0x37D DUP3 DUP5 SWAP3 PUSH1 0x1 PUSH2 0x3EC SWAP6 ADD DUP2 SSTORE PUSH2 0xDC2 JUMP JUMPDEST PUSH32 0x2AC8A78CE8BA9DDE4BC4C8FA91B705039803BB7EFF24D075F9F2B3A5431D483 DUP5 DUP1 LOG4 DUP1 RETURN JUMPDEST PUSH4 0x4E487B71 PUSH1 0xE0 SHL DUP9 MSTORE PUSH1 0x41 SWAP1 MSTORE DUP7 REVERT JUMPDEST PUSH4 0x4E487B71 PUSH1 0xE0 SHL DUP12 MSTORE PUSH1 0x31 DUP8 MSTORE DUP6 DUP12 REVERT JUMPDEST PUSH4 0x4E487B71 PUSH1 0xE0 SHL DUP13 MSTORE PUSH1 0x11 DUP9 MSTORE DUP7 DUP13 REVERT JUMPDEST POP POP SWAP1 SWAP2 SWAP3 SWAP4 SWAP5 SWAP6 SWAP7 POP PUSH2 0x3B9 JUMP JUMPDEST SWAP1 POP DUP11 SLOAD AND CALLER EQ CODESIZE PUSH2 0x2E1 JUMP JUMPDEST SWAP1 PUSH1 0x15 PUSH1 0x64 SWAP3 PUSH1 0x20 DUP9 MLOAD SWAP4 PUSH3 0x461BCD PUSH1 0xE5 SHL DUP6 MSTORE DUP5 ADD MSTORE DUP3 ADD MSTORE PUSH21 0x56657374696E673A207A65726F2061646472657373 PUSH1 0x58 SHL PUSH1 0x44 DUP3 ADD MSTORE REVERT JUMPDEST DUP7 DUP1 REVERT JUMPDEST POP POP CALLVALUE PUSH2 0x136 JUMPI DUP2 PUSH1 0x3 NOT CALLDATASIZE ADD SLT PUSH2 0x136 JUMPI SWAP1 SLOAD SWAP1 MLOAD PUSH1 0x1 PUSH1 0x1 PUSH1 0xA0 SHL SUB SWAP1 SWAP2 AND DUP2 MSTORE PUSH1 0x20 SWAP1 RETURN JUMPDEST SWAP2 SWAP1 POP CALLVALUE PUSH2 0x1C1 JUMPI DUP3 PUSH1 0x3 NOT CALLDATASIZE ADD SLT PUSH2 0x1C1 JUMPI DUP1 MLOAD PUSH4 0x70A08231 PUSH1 0xE0 SHL DUP2 MSTORE ADDRESS SWAP3 DUP2 ADD SWAP3 SWAP1 SWAP3 MSTORE PUSH1 0x20 DUP3 PUSH1 0x24 DUP2 PUSH32 0x0 PUSH1 0x1 PUSH1 0x1 PUSH1 0xA0 SHL SUB AND GAS STATICCALL SWAP2 DUP3 ISZERO PUSH2 0x572 JUMPI DUP4 SWAP3 PUSH2 0x53B JUMPI JUMPDEST PUSH1 0x20 DUP4 DUP4 MLOAD SWAP1 DUP2 MSTORE RETURN JUMPDEST SWAP1 SWAP2 POP PUSH1 0x20 DUP2 RETURNDATASIZE DUP3 GT PUSH2 0x56A JUMPI JUMPDEST DUP2 PUSH2 0x556 PUSH1 0x20 SWAP4 DUP4 PUSH2 0xE56 JUMP JUMPDEST DUP2 ADD SUB SLT PUSH2 0x1C1 JUMPI PUSH1 0x20 SWAP3 POP MLOAD SWAP1 CODESIZE PUSH2 0x531 JUMP JUMPDEST RETURNDATASIZE SWAP2 POP PUSH2 0x549 JUMP JUMPDEST DUP2 MLOAD RETURNDATASIZE DUP6 DUP3 RETURNDATACOPY RETURNDATASIZE SWAP1 REVERT JUMPDEST SWAP1 POP CALLVALUE PUSH2 0x1C1 JUMPI DUP3 PUSH1 0x3 NOT CALLDATASIZE ADD SLT PUSH2 0x1C1 JUMPI DUP2 MLOAD PUSH4 0x70A08231 PUSH1 0xE0 SHL DUP2 MSTORE ADDRESS DUP3 DUP3 ADD MSTORE SWAP1 PUSH1 0x20 DUP3 PUSH1 0x24 DUP2 PUSH32 0x0 PUSH1 0x1 PUSH1 0x1 PUSH1 0xA0 SHL SUB AND GAS STATICCALL SWAP2 DUP3 ISZERO PUSH2 0x62A JUMPI DUP5 SWAP3 PUSH2 0x5EF JUMPI JUMPDEST POP PUSH1 0x20 SWAP4 POP SLOAD GT ISZERO SWAP1 MLOAD SWAP1 DUP2 MSTORE RETURN JUMPDEST SWAP1 SWAP2 POP PUSH1 0x20 DUP2 RETURNDATASIZE DUP3 GT PUSH2 0x622 JUMPI JUMPDEST DUP2 PUSH2 0x60A PUSH1 0x20 SWAP4 DUP4 PUSH2 0xE56 JUMP JUMPDEST DUP2 ADD SUB SLT PUSH2 0x61E JUMPI PUSH1 0x20 SWAP4 POP MLOAD SWAP1 CODESIZE PUSH2 0x5E0 JUMP JUMPDEST DUP4 DUP1 REVERT JUMPDEST RETURNDATASIZE SWAP2 POP PUSH2 0x5FD JUMP JUMPDEST POP POP POP MLOAD SWAP1 RETURNDATASIZE SWAP1 DUP3 RETURNDATACOPY RETURNDATASIZE SWAP1 REVERT JUMPDEST DUP3 DUP5 CALLVALUE PUSH2 0x27D JUMPI PUSH1 0x20 SWAP1 DUP2 PUSH1 0x3 NOT CALLDATASIZE ADD SLT PUSH2 0x27D JUMPI DUP3 SWAP1 PUSH1 0x1 PUSH1 0x1 PUSH1 0xA0 SHL SUB PUSH2 0x65E PUSH2 0xDA7 JUMP JUMPDEST AND DUP2 MSTORE PUSH1 0x3 DUP4 MSTORE DUP2 DUP2 KECCAK256 SWAP1 DUP3 MLOAD DUP1 DUP6 DUP5 SLOAD SWAP2 DUP3 DUP2 MSTORE ADD SWAP1 DUP2 SWAP5 DUP5 MSTORE DUP7 DUP5 KECCAK256 SWAP1 DUP5 JUMPDEST DUP2 DUP2 LT PUSH2 0x6D0 JUMPI POP POP POP DUP2 PUSH2 0x695 SWAP2 SUB DUP3 PUSH2 0xE56 JUMP JUMPDEST DUP4 MLOAD SWAP5 DUP6 SWAP5 DUP2 DUP7 ADD SWAP3 DUP3 DUP8 MSTORE MLOAD DUP1 SWAP4 MSTORE DUP6 ADD SWAP4 SWAP3 JUMPDEST DUP3 DUP2 LT PUSH2 0x6B9 JUMPI POP POP POP POP SUB SWAP1 RETURN JUMPDEST DUP4 MLOAD DUP6 MSTORE DUP7 SWAP6 POP SWAP4 DUP2 ADD SWAP4 SWAP3 DUP2 ADD SWAP3 PUSH1 0x1 ADD PUSH2 0x6AA JUMP JUMPDEST DUP3 SLOAD DUP5 MSTORE SWAP3 DUP9 ADD SWAP3 PUSH1 0x1 SWAP3 DUP4 ADD SWAP3 ADD PUSH2 0x67F JUMP JUMPDEST DUP4 CALLVALUE PUSH2 0x27D JUMPI DUP1 PUSH1 0x3 NOT CALLDATASIZE ADD SLT PUSH2 0x27D JUMPI PUSH2 0x6FD PUSH2 0xE2A JUMP JUMPDEST DUP1 SLOAD PUSH1 0x1 PUSH1 0x1 PUSH1 0xA0 SHL SUB NOT DUP2 AND DUP3 SSTORE DUP2 SWAP1 PUSH1 0x1 PUSH1 0x1 PUSH1 0xA0 SHL SUB AND PUSH32 0x8BE0079C531659141344CD1FD0A4F28419497F9722A3DAAFE3B4186F6B6457E0 DUP3 DUP1 LOG3 DUP1 RETURN JUMPDEST DUP3 DUP5 CALLVALUE PUSH2 0x27D JUMPI PUSH1 0x20 CALLDATASIZE PUSH1 0x3 NOT ADD SLT PUSH2 0x27D JUMPI POP PUSH2 0x75E PUSH1 0x20 SWAP3 CALLDATALOAD PUSH2 0x103D JUMP JUMPDEST SWAP1 MLOAD SWAP1 DUP2 MSTORE RETURN JUMPDEST DUP4 DUP4 CALLVALUE PUSH2 0x136 JUMPI PUSH1 0x20 DUP1 PUSH1 0x3 NOT CALLDATASIZE ADD SLT PUSH2 0x1C1 JUMPI PUSH2 0x781 PUSH2 0xDA7 JUMP JUMPDEST SWAP1 PUSH2 0x78A PUSH2 0x11B8 JUMP JUMPDEST PUSH1 0x1 PUSH1 0x1 PUSH1 0xA0 SHL SUB SWAP2 DUP3 AND DUP5 MSTORE PUSH1 0x3 DUP1 DUP3 MSTORE DUP4 DUP6 KECCAK256 DUP5 MLOAD DUP2 SLOAD DUP1 DUP3 MSTORE SWAP2 DUP8 MSTORE DUP4 DUP8 KECCAK256 SWAP1 SWAP8 SWAP3 SWAP4 SWAP3 SWAP2 DUP9 SWAP1 DUP2 DUP6 ADD SWAP1 DUP10 JUMPDEST DUP7 DUP3 DUP3 LT PUSH2 0x8E7 JUMPI POP POP POP PUSH2 0x7D1 SWAP3 POP SUB DUP9 PUSH2 0xE56 JUMP JUMPDEST DUP7 MLOAD ISZERO PUSH2 0x8AE JUMPI POP DUP5 JUMPDEST DUP7 MLOAD DUP2 LT ISZERO PUSH2 0x8A6 JUMPI DUP1 DUP3 PUSH2 0x826 SWAP3 PUSH1 0x5 SHL DUP10 ADD ADD MLOAD PUSH2 0x7FA DUP2 PUSH2 0xDF0 JUMP JUMPDEST POP SWAP1 PUSH1 0xFF DUP7 DUP4 ADD SLOAD PUSH1 0xC8 SHR AND PUSH2 0x89F JUMPI PUSH2 0x813 DUP2 PUSH2 0x103D JUMP JUMPDEST SWAP2 DUP6 DUP9 DUP5 PUSH2 0x82B JUMPI JUMPDEST POP POP POP POP POP PUSH2 0x11DB JUMP JUMPDEST PUSH2 0x7DB JUMP JUMPDEST DUP3 PUSH1 0x2 PUSH32 0xA6C812047C4DC10F52F9E7943B1B3DFAFAE864D5E0D4DED081BBBDE69DD6FF0D SWAP5 ADD PUSH2 0x85C DUP8 DUP3 SLOAD PUSH2 0x1109 JUMP JUMPDEST SWAP1 SSTORE PUSH2 0x88C DUP7 DUP4 DUP4 SLOAD AND PUSH32 0x0 PUSH2 0x1116 JUMP JUMPDEST SLOAD AND SWAP4 DUP11 MLOAD SWAP1 DUP2 MSTORE LOG3 DUP9 DUP1 DUP1 DUP6 DUP9 PUSH2 0x81C JUMP JUMPDEST POP POP PUSH2 0x11DB JUMP JUMPDEST DUP6 PUSH1 0x1 DUP1 SSTORE DUP1 RETURN JUMPDEST PUSH1 0x64 SWAP2 DUP6 MLOAD SWAP2 PUSH3 0x461BCD PUSH1 0xE5 SHL DUP4 MSTORE DUP3 ADD MSTORE PUSH1 0x15 PUSH1 0x24 DUP3 ADD MSTORE PUSH21 0x56657374696E673A206E6F207363686564756C6573 PUSH1 0x58 SHL PUSH1 0x44 DUP3 ADD MSTORE REVERT JUMPDEST DUP6 SLOAD DUP5 MSTORE PUSH1 0x1 SWAP6 DUP7 ADD SWAP6 DUP14 SWAP6 POP SWAP4 ADD SWAP3 ADD PUSH2 0x7BA JUMP JUMPDEST POP POP CALLVALUE PUSH2 0x136 JUMPI DUP1 PUSH1 0x3 NOT CALLDATASIZE ADD SLT PUSH2 0x136 JUMPI PUSH2 0x917 PUSH2 0xDA7 JUMP JUMPDEST PUSH1 0x1 PUSH1 0x1 PUSH1 0xA0 SHL SUB AND DUP3 MSTORE PUSH1 0x3 PUSH1 0x20 MSTORE DUP1 DUP3 KECCAK256 DUP1 SLOAD PUSH1 0x24 CALLDATALOAD SWAP4 SWAP1 DUP5 LT ISZERO PUSH2 0x27D JUMPI POP PUSH1 0x20 SWAP3 PUSH2 0x945 SWAP2 PUSH2 0xDC2 JUMP JUMPDEST SWAP1 SLOAD SWAP1 PUSH1 0x3 SHL SHR SWAP1 MLOAD SWAP1 DUP2 MSTORE RETURN JUMPDEST SWAP1 POP CALLVALUE PUSH2 0x1C1 JUMPI PUSH1 0x20 CALLDATASIZE PUSH1 0x3 NOT ADD SLT PUSH2 0x1C1 JUMPI DUP1 CALLDATALOAD SWAP1 PUSH2 0x971 PUSH2 0x11B8 JUMP JUMPDEST PUSH2 0x97E PUSH1 0x2 SLOAD DUP4 LT PUSH2 0xE8E JUMP JUMPDEST PUSH2 0x987 DUP3 PUSH2 0xDF0 JUMP JUMPDEST POP PUSH2 0x99C PUSH1 0xFF PUSH1 0x3 DUP4 ADD SLOAD PUSH1 0xC8 SHR AND ISZERO PUSH2 0x1071 JUMP JUMPDEST DUP1 SLOAD PUSH1 0x1 PUSH1 0x1 PUSH1 0xA0 SHL SUB SWAP2 SWAP1 DUP3 AND CALLER DUP2 EQ DUP1 ISZERO PUSH2 0xA82 JUMPI JUMPDEST PUSH2 0x9BD SWAP1 PUSH2 0x10BD JUMP JUMPDEST PUSH2 0x9C6 DUP6 PUSH2 0x103D JUMP JUMPDEST SWAP4 DUP5 ISZERO PUSH2 0xA3F JUMPI POP SWAP2 DUP2 PUSH2 0xA30 DUP6 PUSH1 0x20 SWAP6 PUSH1 0x2 PUSH32 0xA6C812047C4DC10F52F9E7943B1B3DFAFAE864D5E0D4DED081BBBDE69DD6FF0D SWAP9 SWAP7 ADD PUSH2 0xA08 DUP4 DUP3 SLOAD PUSH2 0x1109 JUMP JUMPDEST SWAP1 SSTORE PUSH32 0x0 PUSH2 0x1116 JUMP JUMPDEST SLOAD AND SWAP5 MLOAD SWAP1 DUP2 MSTORE LOG3 PUSH1 0x1 DUP1 SSTORE DUP1 RETURN JUMPDEST PUSH1 0x64 SWAP1 PUSH1 0x20 DUP9 MLOAD SWAP2 PUSH3 0x461BCD PUSH1 0xE5 SHL DUP4 MSTORE DUP3 ADD MSTORE PUSH1 0x1B PUSH1 0x24 DUP3 ADD MSTORE PUSH32 0x56657374696E673A206E6F7468696E6720746F2072656C656173650000000000 PUSH1 0x44 DUP3 ADD MSTORE REVERT JUMPDEST POP DUP7 SLOAD DUP4 AND CALLER EQ PUSH2 0x9B4 JUMP JUMPDEST POP POP CALLVALUE PUSH2 0x136 JUMPI DUP2 PUSH1 0x3 NOT CALLDATASIZE ADD SLT PUSH2 0x136 JUMPI PUSH1 0x20 SWAP1 PUSH1 0x2 SLOAD SWAP1 MLOAD SWAP1 DUP2 MSTORE RETURN JUMPDEST SWAP1 POP CALLVALUE PUSH2 0x1C1 JUMPI PUSH1 0x20 CALLDATASIZE PUSH1 0x3 NOT ADD SLT PUSH2 0x1C1 JUMPI PUSH2 0x140 SWAP3 POP CALLDATALOAD PUSH2 0xAD3 PUSH1 0x2 SLOAD DUP3 LT PUSH2 0xE8E JUMP JUMPDEST PUSH2 0xAE5 PUSH2 0xADF DUP3 PUSH2 0xDF0 JUMP JUMPDEST POP PUSH2 0xEDA JUMP JUMPDEST PUSH1 0x1 DUP1 PUSH1 0xA0 SHL SUB DUP2 MLOAD AND SWAP3 PUSH1 0x20 DUP3 ADD MLOAD SWAP3 PUSH2 0xAFF DUP2 PUSH2 0xF80 JUMP JUMPDEST PUSH2 0xB0C DUP4 DUP6 ADD MLOAD SWAP3 PUSH2 0x103D JUMP JUMPDEST PUSH8 0xFFFFFFFFFFFFFFFF SWAP3 DUP4 PUSH1 0x60 DUP8 ADD MLOAD AND SWAP3 DUP5 PUSH1 0x80 DUP9 ADD MLOAD AND SWAP5 PUSH1 0xA0 DUP9 ADD MLOAD AND SWAP6 PUSH1 0xE0 PUSH1 0xC0 DUP10 ADD MLOAD ISZERO ISZERO SWAP9 ADD MLOAD ISZERO ISZERO SWAP9 DUP2 MLOAD SWAP11 DUP12 MSTORE PUSH1 0x20 DUP12 ADD MSTORE DUP10 ADD MSTORE PUSH1 0x60 DUP9 ADD MSTORE PUSH1 0x80 DUP8 ADD MSTORE PUSH1 0xA0 DUP7 ADD MSTORE PUSH1 0xC0 DUP6 ADD MSTORE PUSH1 0xE0 DUP5 ADD MSTORE PUSH2 0x100 DUP4 ADD MSTORE PUSH2 0x120 DUP3 ADD MSTORE RETURN JUMPDEST SWAP1 POP CALLVALUE PUSH2 0x1C1 JUMPI PUSH1 0x20 CALLDATASIZE PUSH1 0x3 NOT ADD SLT PUSH2 0x1C1 JUMPI DUP1 CALLDATALOAD SWAP1 PUSH2 0xB8E PUSH2 0xE2A JUMP JUMPDEST PUSH2 0xB96 PUSH2 0x11B8 JUMP JUMPDEST PUSH2 0xBA3 PUSH1 0x2 SLOAD DUP4 LT PUSH2 0xE8E JUMP JUMPDEST PUSH2 0xBAC DUP3 PUSH2 0xDF0 JUMP JUMPDEST POP PUSH1 0x3 DUP2 ADD SWAP2 DUP3 SLOAD PUSH1 0xFF DUP2 PUSH1 0xC0 SHR AND ISZERO PUSH2 0xD4B JUMPI PUSH1 0xC8 SHR PUSH1 0xFF AND PUSH2 0xD08 JUMPI SWAP2 PUSH1 0x20 SWAP2 PUSH32 0xCFB0E1F97BC375D6B68398D705DAC100573940A50FBF4A871C186AD55909CC8C SWAP4 PUSH2 0xC20 PUSH2 0xBFC DUP8 PUSH2 0xF80 JUMP JUMPDEST PUSH1 0x2 DUP5 ADD DUP2 PUSH2 0xC0C DUP3 SLOAD DUP3 PUSH2 0xF5D JUMP JUMPDEST SWAP2 DUP3 PUSH2 0xC9D JUMPI JUMPDEST POP POP POP PUSH1 0x1 DUP5 ADD SLOAD PUSH2 0xF5D JUMP JUMPDEST DUP4 SLOAD PUSH1 0xFF PUSH1 0xC8 SHL NOT AND PUSH1 0x1 PUSH1 0xC8 SHL OR SWAP1 SWAP4 SSTORE DUP3 PUSH2 0xC53 JUMPI JUMPDEST POP SLOAD SWAP5 MLOAD SWAP1 DUP2 MSTORE PUSH1 0x1 PUSH1 0x1 PUSH1 0xA0 SHL SUB SWAP1 SWAP5 AND SWAP4 LOG3 PUSH1 0x1 DUP1 SSTORE DUP1 RETURN JUMPDEST PUSH2 0xC5E DUP4 DUP3 SLOAD PUSH2 0xF5D JUMP JUMPDEST SWAP1 SSTORE DUP7 SLOAD PUSH2 0xC97 SWAP1 DUP4 SWAP1 PUSH1 0x1 PUSH1 0x1 PUSH1 0xA0 SHL SUB AND PUSH32 0x0 PUSH2 0x1116 JUMP JUMPDEST CODESIZE PUSH2 0xC38 JUMP JUMPDEST SSTORE DUP9 PUSH32 0xA6C812047C4DC10F52F9E7943B1B3DFAFAE864D5E0D4DED081BBBDE69DD6FF0D DUP9 PUSH1 0x1 DUP1 PUSH1 0xA0 SHL SUB PUSH2 0xCF6 DUP6 DUP3 DUP12 SLOAD AND PUSH32 0x0 PUSH2 0x1116 JUMP JUMPDEST DUP9 SLOAD AND SWAP4 DUP14 MLOAD SWAP1 DUP2 MSTORE LOG3 CODESIZE DUP2 DUP2 PUSH2 0xC13 JUMP JUMPDEST PUSH1 0x64 SWAP1 PUSH1 0x20 DUP7 MLOAD SWAP2 PUSH3 0x461BCD PUSH1 0xE5 SHL DUP4 MSTORE DUP3 ADD MSTORE PUSH1 0x18 PUSH1 0x24 DUP3 ADD MSTORE PUSH32 0x56657374696E673A20616C7265616479207265766F6B65640000000000000000 PUSH1 0x44 DUP3 ADD MSTORE REVERT JUMPDEST DUP6 MLOAD PUSH3 0x461BCD PUSH1 0xE5 SHL DUP2 MSTORE PUSH1 0x20 DUP2 DUP5 ADD MSTORE PUSH1 0x16 PUSH1 0x24 DUP3 ADD MSTORE PUSH22 0x56657374696E673A206E6F74207265766F6361626C65 PUSH1 0x50 SHL PUSH1 0x44 DUP3 ADD MSTORE PUSH1 0x64 SWAP1 REVERT JUMPDEST DUP3 DUP5 CALLVALUE PUSH2 0x27D JUMPI PUSH1 0x20 CALLDATASIZE PUSH1 0x3 NOT ADD SLT PUSH2 0x27D JUMPI POP PUSH2 0x75E PUSH1 0x20 SWAP3 CALLDATALOAD PUSH2 0xF80 JUMP JUMPDEST PUSH1 0x4 CALLDATALOAD SWAP1 PUSH1 0x1 PUSH1 0x1 PUSH1 0xA0 SHL SUB DUP3 AND DUP3 SUB PUSH2 0xDBD JUMPI JUMP JUMPDEST PUSH1 0x0 DUP1 REVERT JUMPDEST DUP1 SLOAD DUP3 LT ISZERO PUSH2 0xDDA JUMPI PUSH1 0x0 MSTORE PUSH1 0x20 PUSH1 0x0 KECCAK256 ADD SWAP1 PUSH1 0x0 SWAP1 JUMP JUMPDEST PUSH4 0x4E487B71 PUSH1 0xE0 SHL PUSH1 0x0 MSTORE PUSH1 0x32 PUSH1 0x4 MSTORE PUSH1 0x24 PUSH1 0x0 REVERT JUMPDEST PUSH1 0x2 SLOAD DUP2 LT ISZERO PUSH2 0xDDA JUMPI PUSH1 0x2 PUSH1 0x0 MSTORE PUSH1 0x2 SHL PUSH32 0x405787FA12A823E0F2B7631CC41B3BA8828B3321CA811111FA75CD3AA3BB5ACE ADD SWAP1 PUSH1 0x0 SWAP1 JUMP JUMPDEST PUSH1 0x0 SLOAD PUSH1 0x1 PUSH1 0x1 PUSH1 0xA0 SHL SUB AND CALLER SUB PUSH2 0xE3E JUMPI JUMP JUMPDEST PUSH1 0x40 MLOAD PUSH4 0x118CDAA7 PUSH1 0xE0 SHL DUP2 MSTORE CALLER PUSH1 0x4 DUP3 ADD MSTORE PUSH1 0x24 SWAP1 REVERT JUMPDEST SWAP1 PUSH1 0x1F DUP1 NOT SWAP2 ADD AND DUP2 ADD SWAP1 DUP2 LT PUSH8 0xFFFFFFFFFFFFFFFF DUP3 GT OR PUSH2 0xE78 JUMPI PUSH1 0x40 MSTORE JUMP JUMPDEST PUSH4 0x4E487B71 PUSH1 0xE0 SHL PUSH1 0x0 MSTORE PUSH1 0x41 PUSH1 0x4 MSTORE PUSH1 0x24 PUSH1 0x0 REVERT JUMPDEST ISZERO PUSH2 0xE95 JUMPI JUMP JUMPDEST PUSH1 0x40 MLOAD PUSH3 0x461BCD PUSH1 0xE5 SHL DUP2 MSTORE PUSH1 0x20 PUSH1 0x4 DUP3 ADD MSTORE PUSH1 0x19 PUSH1 0x24 DUP3 ADD MSTORE PUSH32 0x56657374696E673A20696E76616C6964207363686564756C6500000000000000 PUSH1 0x44 DUP3 ADD MSTORE PUSH1 0x64 SWAP1 REVERT JUMPDEST SWAP1 PUSH1 0x40 MLOAD PUSH2 0x100 DUP2 ADD PUSH8 0xFFFFFFFFFFFFFFFF SWAP1 DUP3 DUP2 LT DUP3 DUP3 GT OR PUSH2 0xE78 JUMPI PUSH1 0xE0 SWAP2 PUSH1 0xFF SWAP2 PUSH1 0x40 MSTORE PUSH1 0x3 DUP5 SWAP7 PUSH1 0x1 DUP1 PUSH1 0xA0 SHL SUB DUP2 SLOAD AND DUP7 MSTORE PUSH1 0x1 DUP2 ADD SLOAD PUSH1 0x20 DUP8 ADD MSTORE PUSH1 0x2 DUP2 ADD SLOAD PUSH1 0x40 DUP8 ADD MSTORE ADD SLOAD SWAP1 DUP1 DUP3 AND PUSH1 0x60 DUP7 ADD MSTORE DUP1 DUP3 PUSH1 0x40 SHR AND PUSH1 0x80 DUP7 ADD MSTORE DUP2 PUSH1 0x80 SHR AND PUSH1 0xA0 DUP6 ADD MSTORE DUP2 DUP2 PUSH1 0xC0 SHR AND ISZERO ISZERO PUSH1 0xC0 DUP6 ADD MSTORE PUSH1 0xC8 SHR AND ISZERO ISZERO SWAP2 ADD MSTORE JUMP JUMPDEST SWAP2 SWAP1 DUP3 SUB SWAP2 DUP3 GT PUSH2 0xF6A JUMPI JUMP JUMPDEST PUSH4 0x4E487B71 PUSH1 0xE0 SHL PUSH1 0x0 MSTORE PUSH1 0x11 PUSH1 0x4 MSTORE PUSH1 0x24 PUSH1 0x0 REVERT JUMPDEST PUSH2 0xADF PUSH2 0xF99 SWAP2 PUSH2 0xF94 PUSH1 0x2 SLOAD DUP3 LT PUSH2 0xE8E JUMP JUMPDEST PUSH2 0xDF0 JUMP JUMPDEST PUSH1 0xE0 DUP2 ADD MLOAD PUSH2 0x1036 JUMPI PUSH1 0x80 DUP2 ADD PUSH8 0xFFFFFFFFFFFFFFFF DUP1 DUP3 MLOAD AND SWAP2 DUP3 TIMESTAMP LT PUSH1 0x0 EQ PUSH2 0xFC7 JUMPI POP POP POP POP PUSH1 0x0 SWAP1 JUMP JUMPDEST PUSH1 0xA0 DUP5 ADD DUP1 MLOAD SWAP1 SWAP4 SWAP1 DUP4 AND TIMESTAMP LT PUSH2 0xFE3 JUMPI POP POP POP POP PUSH1 0x20 ADD MLOAD SWAP1 JUMP JUMPDEST DUP3 PUSH2 0xFEF DUP2 SWAP3 TIMESTAMP PUSH2 0xF5D JUMP JUMPDEST SWAP5 MLOAD AND SWAP2 MLOAD AND SWAP1 SUB SWAP1 DUP1 DUP3 GT PUSH2 0xF6A JUMPI PUSH1 0x20 SWAP2 AND SWAP3 ADD MLOAD DUP2 DUP2 MUL SWAP2 DUP2 DUP4 DIV EQ SWAP1 ISZERO OR ISZERO PUSH2 0xF6A JUMPI DUP2 ISZERO PUSH2 0x1020 JUMPI DIV SWAP1 JUMP JUMPDEST PUSH4 0x4E487B71 PUSH1 0xE0 SHL PUSH1 0x0 MSTORE PUSH1 0x12 PUSH1 0x4 MSTORE PUSH1 0x24 PUSH1 0x0 REVERT JUMPDEST PUSH1 0x40 ADD MLOAD SWAP1 JUMP JUMPDEST PUSH1 0x2 PUSH2 0x1051 PUSH2 0x104B DUP4 PUSH2 0xF80 JUMP JUMPDEST SWAP3 PUSH2 0xDF0 JUMP JUMPDEST POP ADD SLOAD PUSH1 0x0 SWAP2 DUP2 DUP2 GT ISZERO PUSH2 0x106C JUMPI PUSH2 0x1069 SWAP3 POP PUSH2 0xF5D JUMP JUMPDEST SWAP1 JUMP JUMPDEST POP POP SWAP1 JUMP JUMPDEST ISZERO PUSH2 0x1078 JUMPI JUMP JUMPDEST PUSH1 0x40 MLOAD PUSH3 0x461BCD PUSH1 0xE5 SHL DUP2 MSTORE PUSH1 0x20 PUSH1 0x4 DUP3 ADD MSTORE PUSH1 0x19 PUSH1 0x24 DUP3 ADD MSTORE PUSH32 0x56657374696E673A207363686564756C65207265766F6B656400000000000000 PUSH1 0x44 DUP3 ADD MSTORE PUSH1 0x64 SWAP1 REVERT JUMPDEST ISZERO PUSH2 0x10C4 JUMPI JUMP JUMPDEST PUSH1 0x40 MLOAD PUSH3 0x461BCD PUSH1 0xE5 SHL DUP2 MSTORE PUSH1 0x20 PUSH1 0x4 DUP3 ADD MSTORE PUSH1 0x17 PUSH1 0x24 DUP3 ADD MSTORE PUSH32 0x56657374696E673A206E6F7420617574686F72697A6564000000000000000000 PUSH1 0x44 DUP3 ADD MSTORE PUSH1 0x64 SWAP1 REVERT JUMPDEST SWAP2 SWAP1 DUP3 ADD DUP1 SWAP3 GT PUSH2 0xF6A JUMPI JUMP JUMPDEST PUSH1 0x40 MLOAD PUSH4 0xA9059CBB PUSH1 0xE0 SHL PUSH1 0x20 DUP3 ADD SWAP1 DUP2 MSTORE PUSH1 0x1 PUSH1 0x1 PUSH1 0xA0 SHL SUB SWAP4 DUP5 AND PUSH1 0x24 DUP4 ADD MSTORE PUSH1 0x44 DUP1 DUP4 ADD SWAP6 SWAP1 SWAP6 MSTORE SWAP4 DUP2 MSTORE SWAP1 SWAP3 PUSH1 0x80 DUP3 ADD SWAP1 PUSH8 0xFFFFFFFFFFFFFFFF DUP3 GT DUP4 DUP4 LT OR PUSH2 0xE78 JUMPI PUSH1 0x20 SWAP3 PUSH1 0x0 SWAP3 PUSH1 0x40 MSTORE MLOAD SWAP1 DUP3 DUP7 GAS CALL ISZERO PUSH2 0x11AC JUMPI PUSH1 0x0 MLOAD RETURNDATASIZE PUSH2 0x11A3 JUMPI POP DUP1 DUP3 AND EXTCODESIZE ISZERO JUMPDEST PUSH2 0x1189 JUMPI POP POP JUMP JUMPDEST PUSH1 0x40 MLOAD PUSH4 0x5274AFE7 PUSH1 0xE0 SHL DUP2 MSTORE SWAP2 AND PUSH1 0x4 DUP3 ADD MSTORE PUSH1 0x24 SWAP2 POP REVERT JUMPDEST PUSH1 0x1 EQ ISZERO PUSH2 0x1181 JUMP JUMPDEST PUSH1 0x40 MLOAD RETURNDATASIZE PUSH1 0x0 DUP3 RETURNDATACOPY RETURNDATASIZE SWAP1 REVERT JUMPDEST PUSH1 0x2 PUSH1 0x1 SLOAD EQ PUSH2 0x11C9 JUMPI PUSH1 0x2 PUSH1 0x1 SSTORE JUMP JUMPDEST PUSH1 0x40 MLOAD PUSH4 0x3EE5AEB5 PUSH1 0xE0 SHL DUP2 MSTORE PUSH1 0x4 SWAP1 REVERT JUMPDEST PUSH1 0x0 NOT DUP2 EQ PUSH2 0xF6A JUMPI PUSH1 0x1 ADD SWAP1 JUMP INVALID LOG2 PUSH5 0x6970667358 0x22 SLT KECCAK256 ADDRESS 0x23 EXTCODESIZE SWAP14 0xBB 0x1F 0xDD 0xD1 0x2E 0xB0 0xC8 PUSH6 0x65D039351EC2 0xF6 0xDB PUSH25 0x9283CE3832B08C4E24F75A64736F6C63430008140033000000 "},"methodIdentifiers":{"beneficiarySchedules(address,uint256)":"46ca4241","changeBeneficiary(uint256,address)":"b0070a30","contractBalance()":"8b7afe2e","getScheduleIds(address)":"77889776","getSchedulesCount()":"353696a8","getVestingInfo(uint256)":"20f6b0a9","isFunded()":"7c654303","owner()":"8da5cb5b","releasableAmount(uint256)":"5927fca2","release(uint256)":"37bdc99b","releaseAll(address)":"580fc80a","renounceOwnership()":"715018a6","revoke(uint256)":"20c5429b","schedules(uint256)":"bdc6d9ab","token()":"fc0c546a","totalCommitted()":"1d3231d4","totalRequiredTokens()":"ee10e07d","transferOwnership(address)":"f2fde38b","vestedAmount(uint256)":"1bfce853"}}}}}