{
  "_format": "hh-sol-artifact-1",
  "contractName": "AuxiToken",
  "sourceName": "contracts/AuxiToken.sol",
  "abi": [
    {
      "inputs": [
        {
          "internalType": "address",
          "name": "initialOwner",
          "type": "address"
        }
      ],
      "stateMutability": "nonpayable",
      "type": "constructor"
    },
    {
      "inputs": [
        {
          "internalType": "address",
          "name": "spender",
          "type": "address"
        },
        {
          "internalType": "uint256",
          "name": "allowance",
          "type": "uint256"
        },
        {
          "internalType": "uint256",
          "name": "needed",
          "type": "uint256"
        }
      ],
      "name": "ERC20InsufficientAllowance",
      "type": "error"
    },
    {
      "inputs": [
        {
          "internalType": "address",
          "name": "sender",
          "type": "address"
        },
        {
          "internalType": "uint256",
          "name": "balance",
          "type": "uint256"
        },
        {
          "internalType": "uint256",
          "name": "needed",
          "type": "uint256"
        }
      ],
      "name": "ERC20InsufficientBalance",
      "type": "error"
    },
    {
      "inputs": [
        {
          "internalType": "address",
          "name": "approver",
          "type": "address"
        }
      ],
      "name": "ERC20InvalidApprover",
      "type": "error"
    },
    {
      "inputs": [
        {
          "internalType": "address",
          "name": "receiver",
          "type": "address"
        }
      ],
      "name": "ERC20InvalidReceiver",
      "type": "error"
    },
    {
      "inputs": [
        {
          "internalType": "address",
          "name": "sender",
          "type": "address"
        }
      ],
      "name": "ERC20InvalidSender",
      "type": "error"
    },
    {
      "inputs": [
        {
          "internalType": "address",
          "name": "spender",
          "type": "address"
        }
      ],
      "name": "ERC20InvalidSpender",
      "type": "error"
    },
    {
      "inputs": [
        {
          "internalType": "address",
          "name": "owner",
          "type": "address"
        }
      ],
      "name": "OwnableInvalidOwner",
      "type": "error"
    },
    {
      "inputs": [
        {
          "internalType": "address",
          "name": "account",
          "type": "address"
        }
      ],
      "name": "OwnableUnauthorizedAccount",
      "type": "error"
    },
    {
      "anonymous": false,
      "inputs": [
        {
          "indexed": true,
          "internalType": "address",
          "name": "owner",
          "type": "address"
        },
        {
          "indexed": true,
          "internalType": "address",
          "name": "spender",
          "type": "address"
        },
        {
          "indexed": false,
          "internalType": "uint256",
          "name": "value",
          "type": "uint256"
        }
      ],
      "name": "Approval",
      "type": "event"
    },
    {
      "anonymous": false,
      "inputs": [
        {
          "indexed": true,
          "internalType": "address",
          "name": "previousOwner",
          "type": "address"
        },
        {
          "indexed": true,
          "internalType": "address",
          "name": "newOwner",
          "type": "address"
        }
      ],
      "name": "OwnershipTransferred",
      "type": "event"
    },
    {
      "anonymous": false,
      "inputs": [
        {
          "indexed": true,
          "internalType": "address",
          "name": "recipient",
          "type": "address"
        },
        {
          "indexed": false,
          "internalType": "uint256",
          "name": "amount",
          "type": "uint256"
        },
        {
          "indexed": false,
          "internalType": "string",
          "name": "category",
          "type": "string"
        }
      ],
      "name": "TokensDistributed",
      "type": "event"
    },
    {
      "anonymous": false,
      "inputs": [
        {
          "indexed": true,
          "internalType": "address",
          "name": "from",
          "type": "address"
        },
        {
          "indexed": true,
          "internalType": "address",
          "name": "to",
          "type": "address"
        },
        {
          "indexed": false,
          "internalType": "uint256",
          "name": "value",
          "type": "uint256"
        }
      ],
      "name": "Transfer",
      "type": "event"
    },
    {
      "inputs": [],
      "name": "INITIAL_SUPPLY",
      "outputs": [
        {
          "internalType": "uint256",
          "name": "",
          "type": "uint256"
        }
      ],
      "stateMutability": "view",
      "type": "function"
    },
    {
      "inputs": [
        {
          "internalType": "address",
          "name": "owner",
          "type": "address"
        },
        {
          "internalType": "address",
          "name": "spender",
          "type": "address"
        }
      ],
      "name": "allowance",
      "outputs": [
        {
          "internalType": "uint256",
          "name": "",
          "type": "uint256"
        }
      ],
      "stateMutability": "view",
      "type": "function"
    },
    {
      "inputs": [
        {
          "internalType": "address",
          "name": "spender",
          "type": "address"
        },
        {
          "internalType": "uint256",
          "name": "value",
          "type": "uint256"
        }
      ],
      "name": "approve",
      "outputs": [
        {
          "internalType": "bool",
          "name": "",
          "type": "bool"
        }
      ],
      "stateMutability": "nonpayable",
      "type": "function"
    },
    {
      "inputs": [
        {
          "internalType": "address",
          "name": "account",
          "type": "address"
        }
      ],
      "name": "balanceOf",
      "outputs": [
        {
          "internalType": "uint256",
          "name": "",
          "type": "uint256"
        }
      ],
      "stateMutability": "view",
      "type": "function"
    },
    {
      "inputs": [
        {
          "internalType": "address[]",
          "name": "recipients",
          "type": "address[]"
        },
        {
          "internalType": "uint256[]",
          "name": "amounts",
          "type": "uint256[]"
        },
        {
          "internalType": "string[]",
          "name": "categories",
          "type": "string[]"
        }
      ],
      "name": "batchDistribute",
      "outputs": [],
      "stateMutability": "nonpayable",
      "type": "function"
    },
    {
      "inputs": [],
      "name": "decimals",
      "outputs": [
        {
          "internalType": "uint8",
          "name": "",
          "type": "uint8"
        }
      ],
      "stateMutability": "view",
      "type": "function"
    },
    {
      "inputs": [
        {
          "internalType": "address",
          "name": "recipient",
          "type": "address"
        },
        {
          "internalType": "uint256",
          "name": "amount",
          "type": "uint256"
        },
        {
          "internalType": "string",
          "name": "category",
          "type": "string"
        }
      ],
      "name": "distributeTokens",
      "outputs": [],
      "stateMutability": "nonpayable",
      "type": "function"
    },
    {
      "inputs": [],
      "name": "name",
      "outputs": [
        {
          "internalType": "string",
          "name": "",
          "type": "string"
        }
      ],
      "stateMutability": "view",
      "type": "function"
    },
    {
      "inputs": [],
      "name": "owner",
      "outputs": [
        {
          "internalType": "address",
          "name": "",
          "type": "address"
        }
      ],
      "stateMutability": "view",
      "type": "function"
    },
    {
      "inputs": [],
      "name": "renounceOwnership",
      "outputs": [],
      "stateMutability": "nonpayable",
      "type": "function"
    },
    {
      "inputs": [],
      "name": "symbol",
      "outputs": [
        {
          "internalType": "string",
          "name": "",
          "type": "string"
        }
      ],
      "stateMutability": "view",
      "type": "function"
    },
    {
      "inputs": [],
      "name": "totalSupply",
      "outputs": [
        {
          "internalType": "uint256",
          "name": "",
          "type": "uint256"
        }
      ],
      "stateMutability": "view",
      "type": "function"
    },
    {
      "inputs": [
        {
          "internalType": "address",
          "name": "to",
          "type": "address"
        },
        {
          "internalType": "uint256",
          "name": "value",
          "type": "uint256"
        }
      ],
      "name": "transfer",
      "outputs": [
        {
          "internalType": "bool",
          "name": "",
          "type": "bool"
        }
      ],
      "stateMutability": "nonpayable",
      "type": "function"
    },
    {
      "inputs": [
        {
          "internalType": "address",
          "name": "from",
          "type": "address"
        },
        {
          "internalType": "address",
          "name": "to",
          "type": "address"
        },
        {
          "internalType": "uint256",
          "name": "value",
          "type": "uint256"
        }
      ],
      "name": "transferFrom",
      "outputs": [
        {
          "internalType": "bool",
          "name": "",
          "type": "bool"
        }
      ],
      "stateMutability": "nonpayable",
      "type": "function"
    },
    {
      "inputs": [
        {
          "internalType": "address",
          "name": "newOwner",
          "type": "address"
        }
      ],
      "name": "transferOwnership",
      "outputs": [],
      "stateMutability": "nonpayable",
      "type": "function"
    }
  ],
  "bytecode": "0x6080346200042457601f1990601f6001600160401b03620010b438819003838101861685018381118682101762000429578592829160405283396020948591810103126200042457516001600160a01b03808216959092909186900362000424576200006a6200043f565b601481527f417578696469656e20496e64657820546f6b656e000000000000000000000000868201526200009d6200043f565b90600495868352634155584960e01b8884015281519284841162000325576003938454936001948581811c9116801562000419575b8c8210146200040457908b8286859411620003ab575b50508b9085831160011462000346576000926200033a575b505060001982871b1c191690841b1784555b8051948511620003255787548381811c911680156200031a575b8a8210146200030557828111620002ba575b508891851160011462000251578495509084929160009562000245575b50501b92600019911b1c19161782555b83156200022d57600580546001600160a01b0319811686179091558491167f8be0079c531659141344cd1fd0a4f28419497f9722a3daafe3b4186f6b6457e0600080a36002546a52b7d2dcc80cd2e4000000918282018092116200021857506002556000838152808352604080822080548401905551918252917fddf252ad1be2c89b69c2b068fc378daa952ba7f163c4a11628f55a4df523b3ef91a3604051610c549081620004608239f35b601190634e487b7160e01b6000525260246000fd5b604051631e4fbdf760e01b8152600081840152602490fd5b0151935038806200015b565b9291948416928760005284896000209460005b8b89838310620002a2575050501062000287575b50505050811b0182556200016b565b01519060f884600019921b161c191690553880808062000278565b86860151895590970196948501948893500162000264565b88600052896000208380880160051c8201928c8910620002fb575b0160051c019084905b828110620002ee5750506200013e565b60008155018490620002de565b92508192620002d5565b602289634e487b7160e01b6000525260246000fd5b90607f16906200012c565b604188634e487b7160e01b6000525260246000fd5b01519050388062000100565b908c918a8895168960005283600020936000905b8282106200039357505084116200037a575b505050811b01845562000112565b015160001983891b60f8161c191690553880806200036c565b8385015186558a979095019493840193018f6200035a565b909192508760005285826000209181860160051c8301938610620003fa575b918891869594930160051c01915b828110620003ea57508d9150620000e8565b60008155859450889101620003d8565b92508192620003ca565b60228b634e487b7160e01b6000525260246000fd5b90607f1690620000d2565b600080fd5b634e487b7160e01b600052604160045260246000fd5b60408051919082016001600160401b03811183821017620004295760405256fe6080604081815260048036101561001557600080fd5b600092833560e01c90816306fdde031461088b57508063095ea7b3146107e257806318160ddd146107c357806323b872dd146106d05780632ff2e9dc146106aa578063313ce5671461068e5780635b43c10b1461048557806370a082311461044e578063715018a6146103ee5780638da5cb5b146103c557806395d89b41146102a5578063a9059cbb14610274578063b668a8d2146101a7578063dd62ed3e1461015a5763f2fde38b146100c857600080fd5b34610156576020366003190112610156576100e16109c9565b906100ea610a2b565b6001600160a01b03918216928315610140575050600554826bffffffffffffffffffffffff60a01b821617600555167f8be0079c531659141344cd1fd0a4f28419497f9722a3daafe3b4186f6b6457e08380a380f35b51631e4fbdf760e01b8152908101849052602490fd5b8280fd5b5050346101a357806003193601126101a357806020926101786109c9565b6101806109e4565b6001600160a01b0391821683526001865283832091168252845220549051908152f35b5080fd5b5034610156576060366003190112610156576101c16109c9565b91602435906044359067ffffffffffffffff9384831161027057366023840112156102705782013593841161026c57366024858401011161026c577f56c502c6e99329b8657fcef46fe4aaa9cd5d10463c1bd534ec0a09e31c09ae39936024936102669261022d610a2b565b6001600160a01b0388169761025a9083906102498b1515610b35565b610254821515610b76565b33610a57565b51948594019084610bb6565b0390a280f35b8580fd5b8680fd5b5050346101a357806003193601126101a35760209061029e6102946109c9565b6024359033610a57565b5160018152f35b509190346101a357816003193601126101a357805190828454600181811c908083169283156103bb575b60209384841081146103a85783885290811561038c5750600114610337575b505050829003601f01601f191682019267ffffffffffffffff8411838510176103245750829182610320925282610980565b0390f35b634e487b7160e01b815260418552602490fd5b8787529192508591837f8a35acfbc15ff81a39ae7d344fd709f28e8600b4aa8c65c6b64bfe7fe36bd19b5b83851061037857505050508301013880806102ee565b805488860183015293019284908201610362565b60ff1916878501525050151560051b84010190503880806102ee565b634e487b7160e01b895260228a52602489fd5b91607f16916102cf565b5050346101a357816003193601126101a35760055490516001600160a01b039091168152602090f35b833461044b578060031936011261044b57610407610a2b565b600580546001600160a01b0319811690915581906001600160a01b03167f8be0079c531659141344cd1fd0a4f28419497f9722a3daafe3b4186f6b6457e08280a380f35b80fd5b5050346101a35760203660031901126101a35760209181906001600160a01b036104766109c9565b16815280845220549051908152f35b5090346101565760603660031901126101565767ffffffffffffffff91803583811161068a576104b890369083016109fa565b6024939193948535818111610686576104d490369086016109fa565b919093604435828111610682576104ee90369088016109fa565b956104f7610a2b565b84861480610679575b15610637578a5b868110610512578b80f35b6001600160a01b0361058061053b838a8e61055661054e848e6105488a6105408a858a8a610be4565b610c0a565b161515610b35565b8b610be4565b351515610b76565b61057b8c6105738561056c61053b828888610be4565b928c610be4565b359033610a57565b610be4565b61058b838986610be4565b35918a841015610625578360051b860135601e19873603018112156106215786019182359289841161061c57602001833603811361061c577f56c502c6e99329b8657fcef46fe4aaa9cd5d10463c1bd534ec0a09e31c09ae39936105f6918a51948594169684610bb6565b0390a2600019811461060a57600101610507565b634e487b7160e01b8c52601189528a8cfd5b508f80fd5b8f80fd5b634e487b7160e01b8f5260328c528d8ffd5b825162461bcd60e51b81526020818a0152601b818c01527f415558493a206172726179206c656e677468206d69736d6174636800000000006044820152606490fd5b50868514610500565b8980fd5b8780fd5b8480fd5b5050346101a357816003193601126101a3576020905160128152f35b5050346101a357816003193601126101a357602090516a52b7d2dcc80cd2e40000008152f35b50823461044b57606036600319011261044b576106eb6109c9565b6106f36109e4565b916044359360018060a01b03831680835260016020528683203384526020528683205491600019831061072f575b60208861029e898989610a57565b8683106107975781156107805733156107695750825260016020908152868320338452815291869020908590039055829061029e87610721565b8751634a1406b160e11b8152908101849052602490fd5b875163e602df0560e01b8152908101849052602490fd5b8751637dc7a0d960e11b8152339181019182526020820193909352604081018790528291506060010390fd5b5050346101a357816003193601126101a3576020906002549051908152f35b50346101565781600319360112610156576107fb6109c9565b602435903315610874576001600160a01b031691821561085d57508083602095338152600187528181208582528752205582519081527f8c5be1e5ebec7d5bd14f71427d1e84f3dd0314c0f7b2291e5b200ac8c7c3b925843392a35160018152f35b8351634a1406b160e11b8152908101859052602490fd5b835163e602df0560e01b8152808401869052602490fd5b849150833461015657826003193601126101565782600354600181811c90808316928315610976575b60209384841081146103a85783885290811561095a575060011461090457505050829003601f01601f191682019267ffffffffffffffff8411838510176103245750829182610320925282610980565b600387529192508591837fc2575a0e9e593c00f959f8c92f12db2869c3395a3b0502d05e2516446f71f85b5b83851061094657505050508301018580806102ee565b805488860183015293019284908201610930565b60ff1916878501525050151560051b84010190508580806102ee565b91607f16916108b4565b6020808252825181830181905290939260005b8281106109b557505060409293506000838284010152601f8019910116010190565b818101860151848201604001528501610993565b600435906001600160a01b03821682036109df57565b600080fd5b602435906001600160a01b03821682036109df57565b9181601f840112156109df5782359167ffffffffffffffff83116109df576020808501948460051b0101116109df57565b6005546001600160a01b03163303610a3f57565b60405163118cdaa760e01b8152336004820152602490fd5b916001600160a01b03808416928315610b1c5716928315610b035760009083825281602052604082205490838210610ad1575091604082827fddf252ad1be2c89b69c2b068fc378daa952ba7f163c4a11628f55a4df523b3ef958760209652828652038282205586815220818154019055604051908152a3565b60405163391434e360e21b81526001600160a01b03919091166004820152602481019190915260448101839052606490fd5b60405163ec442f0560e01b815260006004820152602490fd5b604051634b637e8f60e11b815260006004820152602490fd5b15610b3c57565b60405162461bcd60e51b8152602060048201526012602482015271415558493a207a65726f206164647265737360701b6044820152606490fd5b15610b7d57565b60405162461bcd60e51b8152602060048201526011602482015270105556124e881e995c9bc8185b5bdd5b9d607a1b6044820152606490fd5b91926060938192845260406020850152816040850152848401376000828201840152601f01601f1916010190565b9190811015610bf45760051b0190565b634e487b7160e01b600052603260045260246000fd5b356001600160a01b03811681036109df579056fea2646970667358221220e1fe42206601a30e8d9641d6efa1d2ed07ceeafa0f064889557e1b7cd35ea90c64736f6c63430008140033",
  "linkReferences": {},
  "deployedLinkReferences": {}
}